{
  "contractName": "DocumentRegistry",
  "abi": [
    {
      "inputs": [],
      "stateMutability": "nonpayable",
      "type": "constructor"
    },
    {
      "inputs": [],
      "name": "AccessControlBadConfirmation",
      "type": "error"
    },
    {
      "inputs": [
        {
          "internalType": "address",
          "name": "account",
          "type": "address"
        },
        {
          "internalType": "bytes32",
          "name": "neededRole",
          "type": "bytes32"
        }
      ],
      "name": "AccessControlUnauthorizedAccount",
      "type": "error"
    },
    {
      "anonymous": false,
      "inputs": [
        {
          "indexed": true,
          "internalType": "address",
          "name": "organization",
          "type": "address"
        },
        {
          "indexed": true,
          "internalType": "address",
          "name": "user",
          "type": "address"
        }
      ],
      "name": "ConnectionEstablished",
      "type": "event"
    },
    {
      "anonymous": false,
      "inputs": [
        {
          "indexed": true,
          "internalType": "address",
          "name": "issuer",
          "type": "address"
        },
        {
          "indexed": true,
          "internalType": "address",
          "name": "recipient",
          "type": "address"
        },
        {
          "indexed": false,
          "internalType": "string",
          "name": "documentHash",
          "type": "string"
        },
        {
          "indexed": false,
          "internalType": "uint256",
          "name": "timestamp",
          "type": "uint256"
        }
      ],
      "name": "CredentialIssued",
      "type": "event"
    },
    {
      "anonymous": false,
      "inputs": [
        {
          "indexed": true,
          "internalType": "address",
          "name": "recipient",
          "type": "address"
        },
        {
          "indexed": false,
          "internalType": "string",
          "name": "documentHash",
          "type": "string"
        }
      ],
      "name": "CredentialRevoked",
      "type": "event"
    },
    {
      "anonymous": false,
      "inputs": [
        {
          "indexed": true,
          "internalType": "address",
          "name": "requester",
          "type": "address"
        },
        {
          "indexed": true,
          "internalType": "address",
          "name": "recipient",
          "type": "address"
        },
        {
          "indexed": false,
          "internalType": "string",
          "name": "documentHash",
          "type": "string"
        }
      ],
      "name": "ProofRequested",
      "type": "event"
    },
    {
      "anonymous": false,
      "inputs": [
        {
          "indexed": true,
          "internalType": "address",
          "name": "recipient",
          "type": "address"
        },
        {
          "indexed": true,
          "internalType": "address",
          "name": "requester",
          "type": "address"
        },
        {
          "indexed": false,
          "internalType": "string",
          "name": "documentHash",
          "type": "string"
        },
        {
          "indexed": false,
          "internalType": "bool",
          "name": "valid",
          "type": "bool"
        },
        {
          "indexed": false,
          "internalType": "string",
          "name": "proof",
          "type": "string"
        }
      ],
      "name": "ProofResponded",
      "type": "event"
    },
    {
      "anonymous": false,
      "inputs": [
        {
          "indexed": true,
          "internalType": "bytes32",
          "name": "role",
          "type": "bytes32"
        },
        {
          "indexed": true,
          "internalType": "bytes32",
          "name": "previousAdminRole",
          "type": "bytes32"
        },
        {
          "indexed": true,
          "internalType": "bytes32",
          "name": "newAdminRole",
          "type": "bytes32"
        }
      ],
      "name": "RoleAdminChanged",
      "type": "event"
    },
    {
      "anonymous": false,
      "inputs": [
        {
          "indexed": true,
          "internalType": "bytes32",
          "name": "role",
          "type": "bytes32"
        },
        {
          "indexed": true,
          "internalType": "address",
          "name": "account",
          "type": "address"
        },
        {
          "indexed": true,
          "internalType": "address",
          "name": "sender",
          "type": "address"
        }
      ],
      "name": "RoleGranted",
      "type": "event"
    },
    {
      "anonymous": false,
      "inputs": [
        {
          "indexed": true,
          "internalType": "bytes32",
          "name": "role",
          "type": "bytes32"
        },
        {
          "indexed": true,
          "internalType": "address",
          "name": "account",
          "type": "address"
        },
        {
          "indexed": true,
          "internalType": "address",
          "name": "sender",
          "type": "address"
        }
      ],
      "name": "RoleRevoked",
      "type": "event"
    },
    {
      "anonymous": false,
      "inputs": [
        {
          "indexed": true,
          "internalType": "address",
          "name": "organization",
          "type": "address"
        },
        {
          "indexed": false,
          "internalType": "string",
          "name": "schemaHash",
          "type": "string"
        }
      ],
      "name": "SchemaCreated",
      "type": "event"
    },
    {
      "inputs": [],
      "name": "DEFAULT_ADMIN_ROLE",
      "outputs": [
        {
          "internalType": "bytes32",
          "name": "",
          "type": "bytes32"
        }
      ],
      "stateMutability": "view",
      "type": "function",
      "constant": true
    },
    {
      "inputs": [],
      "name": "ISSUER_ROLE",
      "outputs": [
        {
          "internalType": "bytes32",
          "name": "",
          "type": "bytes32"
        }
      ],
      "stateMutability": "view",
      "type": "function",
      "constant": true
    },
    {
      "inputs": [
        {
          "internalType": "address",
          "name": "",
          "type": "address"
        },
        {
          "internalType": "address",
          "name": "",
          "type": "address"
        }
      ],
      "name": "connections",
      "outputs": [
        {
          "internalType": "address",
          "name": "organization",
          "type": "address"
        },
        {
          "internalType": "address",
          "name": "user",
          "type": "address"
        },
        {
          "internalType": "bool",
          "name": "active",
          "type": "bool"
        }
      ],
      "stateMutability": "view",
      "type": "function",
      "constant": true
    },
    {
      "inputs": [
        {
          "internalType": "address",
          "name": "",
          "type": "address"
        },
        {
          "internalType": "uint256",
          "name": "",
          "type": "uint256"
        }
      ],
      "name": "credentialDefinitions",
      "outputs": [
        {
          "internalType": "string",
          "name": "definitionName",
          "type": "string"
        },
        {
          "internalType": "uint256",
          "name": "version",
          "type": "uint256"
        },
        {
          "internalType": "bool",
          "name": "active",
          "type": "bool"
        }
      ],
      "stateMutability": "view",
      "type": "function",
      "constant": true
    },
    {
      "inputs": [
        {
          "internalType": "address",
          "name": "",
          "type": "address"
        },
        {
          "internalType": "uint256",
          "name": "",
          "type": "uint256"
        }
      ],
      "name": "credentials",
      "outputs": [
        {
          "internalType": "string",
          "name": "documentHash",
          "type": "string"
        },
        {
          "internalType": "uint256",
          "name": "timestamp",
          "type": "uint256"
        },
        {
          "internalType": "bool",
          "name": "revoked",
          "type": "bool"
        },
        {
          "internalType": "string",
          "name": "issuerDID",
          "type": "string"
        },
        {
          "internalType": "string",
          "name": "recipientDID",
          "type": "string"
        }
      ],
      "stateMutability": "view",
      "type": "function",
      "constant": true
    },
    {
      "inputs": [
        {
          "internalType": "bytes32",
          "name": "role",
          "type": "bytes32"
        }
      ],
      "name": "getRoleAdmin",
      "outputs": [
        {
          "internalType": "bytes32",
          "name": "",
          "type": "bytes32"
        }
      ],
      "stateMutability": "view",
      "type": "function",
      "constant": true
    },
    {
      "inputs": [
        {
          "internalType": "bytes32",
          "name": "role",
          "type": "bytes32"
        },
        {
          "internalType": "address",
          "name": "account",
          "type": "address"
        }
      ],
      "name": "grantRole",
      "outputs": [],
      "stateMutability": "nonpayable",
      "type": "function"
    },
    {
      "inputs": [
        {
          "internalType": "bytes32",
          "name": "role",
          "type": "bytes32"
        },
        {
          "internalType": "address",
          "name": "account",
          "type": "address"
        }
      ],
      "name": "hasRole",
      "outputs": [
        {
          "internalType": "bool",
          "name": "",
          "type": "bool"
        }
      ],
      "stateMutability": "view",
      "type": "function",
      "constant": true
    },
    {
      "inputs": [
        {
          "internalType": "address",
          "name": "",
          "type": "address"
        },
        {
          "internalType": "uint256",
          "name": "",
          "type": "uint256"
        }
      ],
      "name": "proofRequests",
      "outputs": [
        {
          "internalType": "address",
          "name": "requester",
          "type": "address"
        },
        {
          "internalType": "string",
          "name": "documentHash",
          "type": "string"
        },
        {
          "internalType": "bool",
          "name": "responded",
          "type": "bool"
        },
        {
          "internalType": "bool",
          "name": "valid",
          "type": "bool"
        },
        {
          "internalType": "string",
          "name": "proof",
          "type": "string"
        }
      ],
      "stateMutability": "view",
      "type": "function",
      "constant": true
    },
    {
      "inputs": [
        {
          "internalType": "bytes32",
          "name": "role",
          "type": "bytes32"
        },
        {
          "internalType": "address",
          "name": "callerConfirmation",
          "type": "address"
        }
      ],
      "name": "renounceRole",
      "outputs": [],
      "stateMutability": "nonpayable",
      "type": "function"
    },
    {
      "inputs": [
        {
          "internalType": "bytes32",
          "name": "role",
          "type": "bytes32"
        },
        {
          "internalType": "address",
          "name": "account",
          "type": "address"
        }
      ],
      "name": "revokeRole",
      "outputs": [],
      "stateMutability": "nonpayable",
      "type": "function"
    },
    {
      "inputs": [
        {
          "internalType": "bytes4",
          "name": "interfaceId",
          "type": "bytes4"
        }
      ],
      "name": "supportsInterface",
      "outputs": [
        {
          "internalType": "bool",
          "name": "",
          "type": "bool"
        }
      ],
      "stateMutability": "view",
      "type": "function",
      "constant": true
    },
    {
      "inputs": [
        {
          "internalType": "address",
          "name": "user",
          "type": "address"
        }
      ],
      "name": "establishConnection",
      "outputs": [],
      "stateMutability": "nonpayable",
      "type": "function"
    },
    {
      "inputs": [
        {
          "internalType": "string",
          "name": "schemaHash",
          "type": "string"
        }
      ],
      "name": "createSchema",
      "outputs": [],
      "stateMutability": "nonpayable",
      "type": "function"
    },
    {
      "inputs": [
        {
          "internalType": "string",
          "name": "definitionName",
          "type": "string"
        },
        {
          "internalType": "uint256",
          "name": "version",
          "type": "uint256"
        }
      ],
      "name": "createCredentialDefinition",
      "outputs": [],
      "stateMutability": "nonpayable",
      "type": "function"
    },
    {
      "inputs": [
        {
          "internalType": "address",
          "name": "recipient",
          "type": "address"
        },
        {
          "internalType": "string",
          "name": "documentHash",
          "type": "string"
        },
        {
          "internalType": "string[]",
          "name": "keys",
          "type": "string[]"
        },
        {
          "internalType": "string[]",
          "name": "values",
          "type": "string[]"
        },
        {
          "internalType": "string",
          "name": "issuerDID",
          "type": "string"
        },
        {
          "internalType": "string",
          "name": "recipientDID",
          "type": "string"
        }
      ],
      "name": "issueCredential",
      "outputs": [],
      "stateMutability": "nonpayable",
      "type": "function"
    },
    {
      "inputs": [
        {
          "internalType": "address",
          "name": "recipient",
          "type": "address"
        },
        {
          "internalType": "string",
          "name": "documentHash",
          "type": "string"
        }
      ],
      "name": "revokeCredential",
      "outputs": [],
      "stateMutability": "nonpayable",
      "type": "function"
    },
    {
      "inputs": [
        {
          "internalType": "address",
          "name": "recipient",
          "type": "address"
        },
        {
          "internalType": "string",
          "name": "documentHash",
          "type": "string"
        }
      ],
      "name": "verifyCredential",
      "outputs": [
        {
          "internalType": "bool",
          "name": "",
          "type": "bool"
        }
      ],
      "stateMutability": "view",
      "type": "function",
      "constant": true
    },
    {
      "inputs": [
        {
          "internalType": "address",
          "name": "organization",
          "type": "address"
        },
        {
          "internalType": "uint256",
          "name": "definitionIndex",
          "type": "uint256"
        },
        {
          "internalType": "uint256",
          "name": "newVersion",
          "type": "uint256"
        }
      ],
      "name": "updateCredentialDefinition",
      "outputs": [],
      "stateMutability": "nonpayable",
      "type": "function"
    },
    {
      "inputs": [
        {
          "internalType": "address",
          "name": "recipient",
          "type": "address"
        },
        {
          "internalType": "uint256",
          "name": "credentialIndex",
          "type": "uint256"
        },
        {
          "internalType": "string",
          "name": "key",
          "type": "string"
        }
      ],
      "name": "getCredentialAttribute",
      "outputs": [
        {
          "internalType": "string",
          "name": "",
          "type": "string"
        }
      ],
      "stateMutability": "view",
      "type": "function",
      "constant": true
    },
    {
      "inputs": [
        {
          "internalType": "address",
          "name": "recipient",
          "type": "address"
        },
        {
          "internalType": "string",
          "name": "documentHash",
          "type": "string"
        }
      ],
      "name": "requestProof",
      "outputs": [],
      "stateMutability": "nonpayable",
      "type": "function"
    },
    {
      "inputs": [
        {
          "internalType": "uint256",
          "name": "requestIndex",
          "type": "uint256"
        },
        {
          "internalType": "bool",
          "name": "isValid",
          "type": "bool"
        },
        {
          "internalType": "string",
          "name": "proof",
          "type": "string"
        }
      ],
      "name": "respondProof",
      "outputs": [],
      "stateMutability": "nonpayable",
      "type": "function"
    }
  ],
  "bytecode": "0x60806040523480156200001157600080fd5b50620000276000801b336200006160201b60201c565b506200005a7f114e74f6ea3bd819998f78687bfcb11b140da08e9b7d222fa9c1f1ba1f2aa122336200006160201b60201c565b50620001d6565b60006200007583836200016460201b60201c565b6200015957600160008085815260200190815260200160002060000160008473ffffffffffffffffffffffffffffffffffffffff1673ffffffffffffffffffffffffffffffffffffffff16815260200190815260200160002060006101000a81548160ff021916908315150217905550620000f5620001ce60201b60201c565b73ffffffffffffffffffffffffffffffffffffffff168273ffffffffffffffffffffffffffffffffffffffff16847f2f8788117e7eff1d82e926ec794901d17c78024a50270940304540a733656f0d60405160405180910390a4600190506200015e565b600090505b92915050565b600080600084815260200190815260200160002060000160008373ffffffffffffffffffffffffffffffffffffffff1673ffffffffffffffffffffffffffffffffffffffff16815260200190815260200160002060009054906101000a900460ff16905092915050565b600033905090565b6131fb80620001e66000396000f3fe608060405234801561001057600080fd5b50600436106101425760003560e01c806375cc2a10116100b8578063b598af531161007c578063b598af53146103b7578063b94f550c146103d3578063c8b56dfe146103ef578063d547741f1461040b578063debfd2a114610427578063e9fe7dfa1461044357610142565b806375cc2a10146102e557806382aefa2414610319578063883aca1e1461033757806391d1485414610369578063a217fddf1461039957610142565b806322dce85a1161010a57806322dce85a14610213578063248a9ca3146102455780632f2ff15d1461027557806336568abe1461029157806359ac4ea5146102ad57806375401fcf146102c957610142565b806301ffc9a71461014757806303cb278a146101775780631c8ff9a5146101ab578063209c7ad1146101c75780632146724e146101f7575b600080fd5b610161600480360381019061015c9190612005565b610473565b60405161016e919061204d565b60405180910390f35b610191600480360381019061018c91906120fc565b6104ed565b6040516101a29594939291906121db565b60405180910390f35b6101c560048036038101906101c09190612378565b6106e5565b005b6101e160048036038101906101dc91906123d4565b610820565b6040516101ee919061204d565b60405180910390f35b610211600480360381019061020c919061245c565b610950565b005b61022d600480360381019061022891906120fc565b610ae6565b60405161023c939291906124cb565b60405180910390f35b61025f600480360381019061025a919061253f565b610bc2565b60405161026c919061257b565b60405180910390f35b61028f600480360381019061028a9190612596565b610be1565b005b6102ab60048036038101906102a69190612596565b610c03565b005b6102c760048036038101906102c291906123d4565b610c7e565b005b6102e360048036038101906102de91906125d6565b610f28565b005b6102ff60048036038101906102fa91906120fc565b610fe2565b60405161031095949392919061262e565b60405180910390f35b61032161117f565b60405161032e919061257b565b60405180910390f35b610351600480360381019061034c919061268f565b6111a3565b604051610360939291906126cf565b60405180910390f35b610383600480360381019061037e9190612596565b611227565b604051610390919061204d565b60405180910390f35b6103a1611291565b6040516103ae919061257b565b60405180910390f35b6103d160048036038101906103cc9190612706565b611298565b005b6103ed60048036038101906103e891906123d4565b6114d5565b005b61040960048036038101906104049190612819565b6116af565b005b61042560048036038101906104209190612596565b611917565b005b610441600480360381019061043c9190612932565b611939565b005b61045d60048036038101906104589190612985565b611a14565b60405161046a91906129f4565b60405180910390f35b60007f7965db0b000000000000000000000000000000000000000000000000000000007bffffffffffffffffffffffffffffffffffffffffffffffffffffffff1916827bffffffffffffffffffffffffffffffffffffffffffffffffffffffff191614806104e657506104e582611c05565b5b9050919050565b6002602052816000526040600020818154811061050957600080fd5b90600052602060002090600702016000915091505080600001805461052d90612a45565b80601f016020809104026020016040519081016040528092919081815260200182805461055990612a45565b80156105a65780601f1061057b576101008083540402835291602001916105a6565b820191906000526020600020905b81548152906001019060200180831161058957829003601f168201915b5050505050908060010154908060020160009054906101000a900460ff16908060050180546105d490612a45565b80601f016020809104026020016040519081016040528092919081815260200182805461060090612a45565b801561064d5780601f106106225761010080835404028352916020019161064d565b820191906000526020600020905b81548152906001019060200180831161063057829003601f168201915b50505050509080600601805461066290612a45565b80601f016020809104026020016040519081016040528092919081815260200182805461068e90612a45565b80156106db5780601f106106b0576101008083540402835291602001916106db565b820191906000526020600020905b8154815290600101906020018083116106be57829003601f168201915b5050505050905085565b61070f7f114e74f6ea3bd819998f78687bfcb11b140da08e9b7d222fa9c1f1ba1f2aa12233611227565b61074e576040517f08c379a000000000000000000000000000000000000000000000000000000000815260040161074590612ac2565b60405180910390fd5b60006040518060600160405280848152602001838152602001600115158152509050600160003373ffffffffffffffffffffffffffffffffffffffff1673ffffffffffffffffffffffffffffffffffffffff16815260200190815260200160002081908060018154018082558091505060019003906000526020600020906003020160009091909190915060008201518160000190816107ee9190612c8e565b506020820151816001015560408201518160020160006101000a81548160ff0219169083151502179055505050505050565b600080600260008573ffffffffffffffffffffffffffffffffffffffff1673ffffffffffffffffffffffffffffffffffffffff168152602001908152602001600020905060005b818054905081101561094357836040516020016108849190612d9c565b604051602081830303815290604052805190602001208282815481106108ad576108ac612db3565b5b90600052602060002090600702016000016040516020016108ce9190612e65565b6040516020818303038152906040528051906020012014801561092057508181815481106108ff576108fe612db3565b5b906000526020600020906007020160020160009054906101000a900460ff16155b156109305760019250505061094a565b808061093b90612eab565b915050610867565b5060009150505b92915050565b6000600360003373ffffffffffffffffffffffffffffffffffffffff1673ffffffffffffffffffffffffffffffffffffffff16815260200190815260200160002084815481106109a3576109a2612db3565b5b906000526020600020906004020190508060020160009054906101000a900460ff1615610a05576040517f08c379a00000000000000000000000000000000000000000000000000000000081526004016109fc90612f3f565b60405180910390fd5b60018160020160006101000a81548160ff021916908315150217905550828160020160016101000a81548160ff02191690831515021790555081816003019081610a4f9190612c8e565b508060000160009054906101000a900473ffffffffffffffffffffffffffffffffffffffff1673ffffffffffffffffffffffffffffffffffffffff163373ffffffffffffffffffffffffffffffffffffffff167f6910753639d1b2be5f65a781a8bd1a25cac025a83dcb45c7ba28da2b160266fc836001018686604051610ad893929190612fe3565b60405180910390a350505050565b60016020528160005260406000208181548110610b0257600080fd5b906000526020600020906003020160009150915050806000018054610b2690612a45565b80601f0160208091040260200160405190810160405280929190818152602001828054610b5290612a45565b8015610b9f5780601f10610b7457610100808354040283529160200191610b9f565b820191906000526020600020905b815481529060010190602001808311610b8257829003601f168201915b5050505050908060010154908060020160009054906101000a900460ff16905083565b6000806000838152602001908152602001600020600101549050919050565b610bea82610bc2565b610bf381611c6f565b610bfd8383611c83565b50505050565b610c0b611d74565b73ffffffffffffffffffffffffffffffffffffffff168173ffffffffffffffffffffffffffffffffffffffff1614610c6f576040517f6697b23200000000000000000000000000000000000000000000000000000000815260040160405180910390fd5b610c798282611d7c565b505050565b600460003373ffffffffffffffffffffffffffffffffffffffff1673ffffffffffffffffffffffffffffffffffffffff16815260200190815260200160002060008373ffffffffffffffffffffffffffffffffffffffff1673ffffffffffffffffffffffffffffffffffffffff16815260200190815260200160002060010160149054906101000a900460ff16610d4a576040517f08c379a0000000000000000000000000000000000000000000000000000000008152600401610d4190613074565b60405180910390fd5b60006040518060a001604052803373ffffffffffffffffffffffffffffffffffffffff168152602001838152602001600015158152602001600015158152602001604051806020016040528060008152508152509050600360008473ffffffffffffffffffffffffffffffffffffffff1673ffffffffffffffffffffffffffffffffffffffff16815260200190815260200160002081908060018154018082558091505060019003906000526020600020906004020160009091909190915060008201518160000160006101000a81548173ffffffffffffffffffffffffffffffffffffffff021916908373ffffffffffffffffffffffffffffffffffffffff1602179055506020820151816001019081610e659190612c8e565b5060408201518160020160006101000a81548160ff02191690831515021790555060608201518160020160016101000a81548160ff0219169083151502179055506080820151816003019081610ebb9190612c8e565b5050508273ffffffffffffffffffffffffffffffffffffffff163373ffffffffffffffffffffffffffffffffffffffff167f39425793a6e93f294caa0024ba155837466ea53c314cda16f0f86e03a1de215d84604051610f1b91906129f4565b60405180910390a3505050565b610f527f114e74f6ea3bd819998f78687bfcb11b140da08e9b7d222fa9c1f1ba1f2aa12233611227565b610f91576040517f08c379a0000000000000000000000000000000000000000000000000000000008152600401610f8890612ac2565b60405180910390fd5b3373ffffffffffffffffffffffffffffffffffffffff167f6a2f7736a4ef97b8d89e9e84dd1e5e85961aa2afc08fbdfa8488839ea0e3542682604051610fd791906129f4565b60405180910390a250565b60036020528160005260406000208181548110610ffe57600080fd5b9060005260206000209060040201600091509150508060000160009054906101000a900473ffffffffffffffffffffffffffffffffffffffff169080600101805461104890612a45565b80601f016020809104026020016040519081016040528092919081815260200182805461107490612a45565b80156110c15780601f10611096576101008083540402835291602001916110c1565b820191906000526020600020905b8154815290600101906020018083116110a457829003601f168201915b5050505050908060020160009054906101000a900460ff16908060020160019054906101000a900460ff16908060030180546110fc90612a45565b80601f016020809104026020016040519081016040528092919081815260200182805461112890612a45565b80156111755780601f1061114a57610100808354040283529160200191611175565b820191906000526020600020905b81548152906001019060200180831161115857829003601f168201915b5050505050905085565b7f114e74f6ea3bd819998f78687bfcb11b140da08e9b7d222fa9c1f1ba1f2aa12281565b6004602052816000526040600020602052806000526040600020600091509150508060000160009054906101000a900473ffffffffffffffffffffffffffffffffffffffff16908060010160009054906101000a900473ffffffffffffffffffffffffffffffffffffffff16908060010160149054906101000a900460ff16905083565b600080600084815260200190815260200160002060000160008373ffffffffffffffffffffffffffffffffffffffff1673ffffffffffffffffffffffffffffffffffffffff16815260200190815260200160002060009054906101000a900460ff16905092915050565b6000801b81565b6112c27f114e74f6ea3bd819998f78687bfcb11b140da08e9b7d222fa9c1f1ba1f2aa12233611227565b611301576040517f08c379a00000000000000000000000000000000000000000000000000000000081526004016112f890612ac2565b60405180910390fd5b60405180606001604052803373ffffffffffffffffffffffffffffffffffffffff1681526020018273ffffffffffffffffffffffffffffffffffffffff16815260200160011515815250600460003373ffffffffffffffffffffffffffffffffffffffff1673ffffffffffffffffffffffffffffffffffffffff16815260200190815260200160002060008373ffffffffffffffffffffffffffffffffffffffff1673ffffffffffffffffffffffffffffffffffffffff16815260200190815260200160002060008201518160000160006101000a81548173ffffffffffffffffffffffffffffffffffffffff021916908373ffffffffffffffffffffffffffffffffffffffff16021790555060208201518160010160006101000a81548173ffffffffffffffffffffffffffffffffffffffff021916908373ffffffffffffffffffffffffffffffffffffffff16021790555060408201518160010160146101000a81548160ff0219169083151502179055509050508073ffffffffffffffffffffffffffffffffffffffff163373ffffffffffffffffffffffffffffffffffffffff167f3f4193589d2f95e6fbbb73fa21816711b72838e5a99038c6cf460d35ba30bae960405160405180910390a350565b6114ff7f114e74f6ea3bd819998f78687bfcb11b140da08e9b7d222fa9c1f1ba1f2aa12233611227565b61153e576040517f08c379a000000000000000000000000000000000000000000000000000000000815260040161153590612ac2565b60405180910390fd5b6000600260008473ffffffffffffffffffffffffffffffffffffffff1673ffffffffffffffffffffffffffffffffffffffff168152602001908152602001600020905060005b81805490508110156116a957826040516020016115a19190612d9c565b604051602081830303815290604052805190602001208282815481106115ca576115c9612db3565b5b90600052602060002090600702016000016040516020016115eb9190612e65565b604051602081830303815290604052805190602001200361169657600182828154811061161b5761161a612db3565b5b906000526020600020906007020160020160006101000a81548160ff0219169083151502179055508373ffffffffffffffffffffffffffffffffffffffff167f47b59d3599ed2ba34f6334425c05eff11ba50848c9b4c4a10d73ddcc9c8c8d028460405161168991906129f4565b60405180910390a26116a9565b80806116a190612eab565b915050611584565b50505050565b6116d97f114e74f6ea3bd819998f78687bfcb11b140da08e9b7d222fa9c1f1ba1f2aa12233611227565b611718576040517f08c379a000000000000000000000000000000000000000000000000000000000815260040161170f90612ac2565b60405180910390fd5b825184511461175c576040517f08c379a0000000000000000000000000000000000000000000000000000000008152600401611753906130e0565b60405180910390fd5b60006040518060e00160405280878152602001428152602001600015158152602001868152602001858152602001848152602001838152509050600260008873ffffffffffffffffffffffffffffffffffffffff1673ffffffffffffffffffffffffffffffffffffffff16815260200190815260200160002081908060018154018082558091505060019003906000526020600020906007020160009091909190915060008201518160000190816118149190612c8e565b506020820151816001015560408201518160020160006101000a81548160ff021916908315150217905550606082015181600301908051906020019061185b929190611ebf565b506080820151816004019080519060200190611878929190611ebf565b5060a082015181600501908161188e9190612c8e565b5060c08201518160060190816118a49190612c8e565b5050508673ffffffffffffffffffffffffffffffffffffffff163373ffffffffffffffffffffffffffffffffffffffff167f3cdce538b6db111fcf97c8cdfc0f65dcd4c7eaeea28abf410f46ad76daed828b8842604051611906929190613100565b60405180910390a350505050505050565b61192082610bc2565b61192981611c6f565b6119338383611d7c565b50505050565b6119637f114e74f6ea3bd819998f78687bfcb11b140da08e9b7d222fa9c1f1ba1f2aa12233611227565b6119a2576040517f08c379a000000000000000000000000000000000000000000000000000000000815260040161199990612ac2565b60405180910390fd5b6000600160008573ffffffffffffffffffffffffffffffffffffffff1673ffffffffffffffffffffffffffffffffffffffff16815260200190815260200160002083815481106119f5576119f4612db3565b5b9060005260206000209060030201905081816001018190555050505050565b60606000600260008673ffffffffffffffffffffffffffffffffffffffff1673ffffffffffffffffffffffffffffffffffffffff1681526020019081526020016000208481548110611a6957611a68612db3565b5b9060005260206000209060070201905060005b8160030180549050811015611bc25783604051602001611a9c9190612d9c565b60405160208183030381529060405280519060200120826003018281548110611ac857611ac7612db3565b5b90600052602060002001604051602001611ae29190612e65565b6040516020818303038152906040528051906020012003611baf57816004018181548110611b1357611b12612db3565b5b906000526020600020018054611b2890612a45565b80601f0160208091040260200160405190810160405280929190818152602001828054611b5490612a45565b8015611ba15780601f10611b7657610100808354040283529160200191611ba1565b820191906000526020600020905b815481529060010190602001808311611b8457829003601f168201915b505050505092505050611bfe565b8080611bba90612eab565b915050611a7c565b506040517f08c379a0000000000000000000000000000000000000000000000000000000008152600401611bf59061317c565b60405180910390fd5b9392505050565b60007f01ffc9a7000000000000000000000000000000000000000000000000000000007bffffffffffffffffffffffffffffffffffffffffffffffffffffffff1916827bffffffffffffffffffffffffffffffffffffffffffffffffffffffff1916149050919050565b611c8081611c7b611d74565b611e6e565b50565b6000611c8f8383611227565b611d6957600160008085815260200190815260200160002060000160008473ffffffffffffffffffffffffffffffffffffffff1673ffffffffffffffffffffffffffffffffffffffff16815260200190815260200160002060006101000a81548160ff021916908315150217905550611d06611d74565b73ffffffffffffffffffffffffffffffffffffffff168273ffffffffffffffffffffffffffffffffffffffff16847f2f8788117e7eff1d82e926ec794901d17c78024a50270940304540a733656f0d60405160405180910390a460019050611d6e565b600090505b92915050565b600033905090565b6000611d888383611227565b15611e6357600080600085815260200190815260200160002060000160008473ffffffffffffffffffffffffffffffffffffffff1673ffffffffffffffffffffffffffffffffffffffff16815260200190815260200160002060006101000a81548160ff021916908315150217905550611e00611d74565b73ffffffffffffffffffffffffffffffffffffffff168273ffffffffffffffffffffffffffffffffffffffff16847ff6391f5c32d9c69d2a47ea670b442974b53935d1edc7fd64eb21e047a839171b60405160405180910390a460019050611e68565b600090505b92915050565b611e788282611227565b611ebb5780826040517fe2517d3f000000000000000000000000000000000000000000000000000000008152600401611eb292919061319c565b60405180910390fd5b5050565b828054828255906000526020600020908101928215611f07579160200282015b82811115611f06578251829081611ef69190612c8e565b5091602001919060010190611edf565b5b509050611f149190611f18565b5090565b5b80821115611f385760008181611f2f9190611f3c565b50600101611f19565b5090565b508054611f4890612a45565b6000825580601f10611f5a5750611f79565b601f016020900490600052602060002090810190611f789190611f7c565b5b50565b5b80821115611f95576000816000905550600101611f7d565b5090565b6000604051905090565b600080fd5b600080fd5b60007fffffffff0000000000000000000000000000000000000000000000000000000082169050919050565b611fe281611fad565b8114611fed57600080fd5b50565b600081359050611fff81611fd9565b92915050565b60006020828403121561201b5761201a611fa3565b5b600061202984828501611ff0565b91505092915050565b60008115159050919050565b61204781612032565b82525050565b6000602082019050612062600083018461203e565b92915050565b600073ffffffffffffffffffffffffffffffffffffffff82169050919050565b600061209382612068565b9050919050565b6120a381612088565b81146120ae57600080fd5b50565b6000813590506120c08161209a565b92915050565b6000819050919050565b6120d9816120c6565b81146120e457600080fd5b50565b6000813590506120f6816120d0565b92915050565b6000806040838503121561211357612112611fa3565b5b6000612121858286016120b1565b9250506020612132858286016120e7565b9150509250929050565b600081519050919050565b600082825260208201905092915050565b60005b8381101561217657808201518184015260208101905061215b565b60008484015250505050565b6000601f19601f8301169050919050565b600061219e8261213c565b6121a88185612147565b93506121b8818560208601612158565b6121c181612182565b840191505092915050565b6121d5816120c6565b82525050565b600060a08201905081810360008301526121f58188612193565b905061220460208301876121cc565b612211604083018661203e565b81810360608301526122238185612193565b905081810360808301526122378184612193565b90509695505050505050565b600080fd5b600080fd5b7f4e487b7100000000000000000000000000000000000000000000000000000000600052604160045260246000fd5b61228582612182565b810181811067ffffffffffffffff821117156122a4576122a361224d565b5b80604052505050565b60006122b7611f99565b90506122c3828261227c565b919050565b600067ffffffffffffffff8211156122e3576122e261224d565b5b6122ec82612182565b9050602081019050919050565b82818337600083830152505050565b600061231b612316846122c8565b6122ad565b90508281526020810184848401111561233757612336612248565b5b6123428482856122f9565b509392505050565b600082601f83011261235f5761235e612243565b5b813561236f848260208601612308565b91505092915050565b6000806040838503121561238f5761238e611fa3565b5b600083013567ffffffffffffffff8111156123ad576123ac611fa8565b5b6123b98582860161234a565b92505060206123ca858286016120e7565b9150509250929050565b600080604083850312156123eb576123ea611fa3565b5b60006123f9858286016120b1565b925050602083013567ffffffffffffffff81111561241a57612419611fa8565b5b6124268582860161234a565b9150509250929050565b61243981612032565b811461244457600080fd5b50565b60008135905061245681612430565b92915050565b60008060006060848603121561247557612474611fa3565b5b6000612483868287016120e7565b935050602061249486828701612447565b925050604084013567ffffffffffffffff8111156124b5576124b4611fa8565b5b6124c18682870161234a565b9150509250925092565b600060608201905081810360008301526124e58186612193565b90506124f460208301856121cc565b612501604083018461203e565b949350505050565b6000819050919050565b61251c81612509565b811461252757600080fd5b50565b60008135905061253981612513565b92915050565b60006020828403121561255557612554611fa3565b5b60006125638482850161252a565b91505092915050565b61257581612509565b82525050565b6000602082019050612590600083018461256c565b92915050565b600080604083850312156125ad576125ac611fa3565b5b60006125bb8582860161252a565b92505060206125cc858286016120b1565b9150509250929050565b6000602082840312156125ec576125eb611fa3565b5b600082013567ffffffffffffffff81111561260a57612609611fa8565b5b6126168482850161234a565b91505092915050565b61262881612088565b82525050565b600060a082019050612643600083018861261f565b81810360208301526126558187612193565b9050612664604083018661203e565b612671606083018561203e565b81810360808301526126838184612193565b90509695505050505050565b600080604083850312156126a6576126a5611fa3565b5b60006126b4858286016120b1565b92505060206126c5858286016120b1565b9150509250929050565b60006060820190506126e4600083018661261f565b6126f1602083018561261f565b6126fe604083018461203e565b949350505050565b60006020828403121561271c5761271b611fa3565b5b600061272a848285016120b1565b91505092915050565b600067ffffffffffffffff82111561274e5761274d61224d565b5b602082029050602081019050919050565b600080fd5b600061277761277284612733565b6122ad565b9050808382526020820190506020840283018581111561279a5761279961275f565b5b835b818110156127e157803567ffffffffffffffff8111156127bf576127be612243565b5b8086016127cc898261234a565b8552602085019450505060208101905061279c565b5050509392505050565b600082601f830112612800576127ff612243565b5b8135612810848260208601612764565b91505092915050565b60008060008060008060c0878903121561283657612835611fa3565b5b600061284489828a016120b1565b965050602087013567ffffffffffffffff81111561286557612864611fa8565b5b61287189828a0161234a565b955050604087013567ffffffffffffffff81111561289257612891611fa8565b5b61289e89828a016127eb565b945050606087013567ffffffffffffffff8111156128bf576128be611fa8565b5b6128cb89828a016127eb565b935050608087013567ffffffffffffffff8111156128ec576128eb611fa8565b5b6128f889828a0161234a565b92505060a087013567ffffffffffffffff81111561291957612918611fa8565b5b61292589828a0161234a565b9150509295509295509295565b60008060006060848603121561294b5761294a611fa3565b5b6000612959868287016120b1565b935050602061296a868287016120e7565b925050604061297b868287016120e7565b9150509250925092565b60008060006060848603121561299e5761299d611fa3565b5b60006129ac868287016120b1565b93505060206129bd868287016120e7565b925050604084013567ffffffffffffffff8111156129de576129dd611fa8565b5b6129ea8682870161234a565b9150509250925092565b60006020820190508181036000830152612a0e8184612193565b905092915050565b7f4e487b7100000000000000000000000000000000000000000000000000000000600052602260045260246000fd5b60006002820490506001821680612a5d57607f821691505b602082108103612a7057612a6f612a16565b5b50919050565b7f43616c6c6572206973206e6f7420616e20697373756572000000000000000000600082015250565b6000612aac601783612147565b9150612ab782612a76565b602082019050919050565b60006020820190508181036000830152612adb81612a9f565b9050919050565b60008190508160005260206000209050919050565b60006020601f8301049050919050565b600082821b905092915050565b600060088302612b447fffffffffffffffffffffffffffffffffffffffffffffffffffffffffffffffff82612b07565b612b4e8683612b07565b95508019841693508086168417925050509392505050565b6000819050919050565b6000612b8b612b86612b81846120c6565b612b66565b6120c6565b9050919050565b6000819050919050565b612ba583612b70565b612bb9612bb182612b92565b848454612b14565b825550505050565b600090565b612bce612bc1565b612bd9818484612b9c565b505050565b5b81811015612bfd57612bf2600082612bc6565b600181019050612bdf565b5050565b601f821115612c4257612c1381612ae2565b612c1c84612af7565b81016020851015612c2b578190505b612c3f612c3785612af7565b830182612bde565b50505b505050565b600082821c905092915050565b6000612c6560001984600802612c47565b1980831691505092915050565b6000612c7e8383612c54565b9150826002028217905092915050565b612c978261213c565b67ffffffffffffffff811115612cb057612caf61224d565b5b612cba8254612a45565b612cc5828285612c01565b600060209050601f831160018114612cf85760008415612ce6578287015190505b612cf08582612c72565b865550612d58565b601f198416612d0686612ae2565b60005b82811015612d2e57848901518255600182019150602085019450602081019050612d09565b86831015612d4b5784890151612d47601f891682612c54565b8355505b6001600288020188555050505b505050505050565b600081905092915050565b6000612d768261213c565b612d808185612d60565b9350612d90818560208601612158565b80840191505092915050565b6000612da88284612d6b565b915081905092915050565b7f4e487b7100000000000000000000000000000000000000000000000000000000600052603260045260246000fd5b60008154612def81612a45565b612df98186612d60565b94506001821660008114612e145760018114612e2957612e5c565b60ff1983168652811515820286019350612e5c565b612e3285612ae2565b60005b83811015612e5457815481890152600182019150602081019050612e35565b838801955050505b50505092915050565b6000612e718284612de2565b915081905092915050565b7f4e487b7100000000000000000000000000000000000000000000000000000000600052601160045260246000fd5b6000612eb6826120c6565b91507fffffffffffffffffffffffffffffffffffffffffffffffffffffffffffffffff8203612ee857612ee7612e7c565b5b600182019050919050565b7f50726f6f66207265717565737420616c726561647920726573706f6e64656400600082015250565b6000612f29601f83612147565b9150612f3482612ef3565b602082019050919050565b60006020820190508181036000830152612f5881612f1c565b9050919050565b60008154612f6c81612a45565b612f768186612147565b94506001821660008114612f915760018114612fa757612fda565b60ff198316865281151560200286019350612fda565b612fb085612ae2565b60005b83811015612fd257815481890152600182019150602081019050612fb3565b808801955050505b50505092915050565b60006060820190508181036000830152612ffd8186612f5f565b905061300c602083018561203e565b818103604083015261301e8184612193565b9050949350505050565b7f436f6e6e656374696f6e206e6f742065737461626c6973686564000000000000600082015250565b600061305e601a83612147565b915061306982613028565b602082019050919050565b6000602082019050818103600083015261308d81613051565b9050919050565b7f4b65797320616e642076616c756573206c656e677468206d69736d6174636800600082015250565b60006130ca601f83612147565b91506130d582613094565b602082019050919050565b600060208201905081810360008301526130f9816130bd565b9050919050565b6000604082019050818103600083015261311a8185612193565b905061312960208301846121cc565b9392505050565b7f417474726962757465206e6f7420666f756e6400000000000000000000000000600082015250565b6000613166601383612147565b915061317182613130565b602082019050919050565b6000602082019050818103600083015261319581613159565b9050919050565b60006040820190506131b1600083018561261f565b6131be602083018461256c565b939250505056fea26469706673582212201c70564063d1ac1fa7b037d640f3b44bf11f18c4c20533eb49f52113c5c931e864736f6c63430008140033",
  "immutableReferences": {},
  "source": "// SPDX-License-Identifier: MIT\npragma solidity ^0.8.20;\n\nimport \"@openzeppelin/contracts/access/AccessControl.sol\";\n\ncontract DocumentRegistry is AccessControl {\n    bytes32 public constant ISSUER_ROLE = keccak256(\"ISSUER_ROLE\");\n\n    struct Credential {\n        string documentHash;\n        uint256 timestamp;\n        bool revoked;\n        string[] attributeKeys;\n        string[] attributeValues;\n        string issuerDID;\n        string recipientDID;\n    }\n\n    struct CredentialDefinition {\n        string definitionName;\n        uint256 version;\n        bool active;\n    }\n\n    struct ProofRequest {\n        address requester;\n        string documentHash;\n        bool responded;\n        bool valid;\n        string proof;\n    }\n\n    struct Connection {\n        address organization;\n        address user;\n        bool active;\n    }\n\n    mapping(address => CredentialDefinition[]) public credentialDefinitions;\n    mapping(address => Credential[]) public credentials;\n    mapping(address => ProofRequest[]) public proofRequests;\n    mapping(address => mapping(address => Connection)) public connections; // organization => user => Connection\n\n    event CredentialIssued(address indexed issuer, address indexed recipient, string documentHash, uint256 timestamp);\n    event CredentialRevoked(address indexed recipient, string documentHash);\n    event ProofRequested(address indexed requester, address indexed recipient, string documentHash);\n    event ProofResponded(address indexed recipient, address indexed requester, string documentHash, bool valid, string proof);\n    event ConnectionEstablished(address indexed organization, address indexed user);\n    event SchemaCreated(address indexed organization, string schemaHash);\n\n    constructor() {\n        _grantRole(DEFAULT_ADMIN_ROLE, msg.sender);\n        _grantRole(ISSUER_ROLE, msg.sender);\n    }\n\n    function establishConnection(address user) public {\n        require(hasRole(ISSUER_ROLE, msg.sender), \"Caller is not an issuer\");\n\n        connections[msg.sender][user] = Connection({\n            organization: msg.sender,\n            user: user,\n            active: true\n        });\n\n        emit ConnectionEstablished(msg.sender, user);\n    }\n\n    function createSchema(string memory schemaHash) public {\n        require(hasRole(ISSUER_ROLE, msg.sender), \"Caller is not an issuer\");\n\n        emit SchemaCreated(msg.sender, schemaHash);\n    }\n\n    function createCredentialDefinition(string memory definitionName, uint256 version) public {\n        require(hasRole(ISSUER_ROLE, msg.sender), \"Caller is not an issuer\");\n        CredentialDefinition memory newDefinition = CredentialDefinition({\n            definitionName: definitionName,\n            version: version,\n            active: true\n        });\n\n        credentialDefinitions[msg.sender].push(newDefinition);\n    }\n\n    function issueCredential(\n        address recipient,\n        string memory documentHash,\n        string[] memory keys,\n        string[] memory values,\n        string memory issuerDID,\n        string memory recipientDID\n    ) public {\n        require(hasRole(ISSUER_ROLE, msg.sender), \"Caller is not an issuer\");\n        require(keys.length == values.length, \"Keys and values length mismatch\");\n\n        Credential memory newCredential = Credential({\n            documentHash: documentHash,\n            timestamp: block.timestamp,\n            revoked: false,\n            attributeKeys: keys,\n            attributeValues: values,\n            issuerDID: issuerDID,\n            recipientDID: recipientDID\n        });\n\n        credentials[recipient].push(newCredential);\n\n        emit CredentialIssued(msg.sender, recipient, documentHash, block.timestamp);\n    }\n\n    function revokeCredential(address recipient, string memory documentHash) public {\n        require(hasRole(ISSUER_ROLE, msg.sender), \"Caller is not an issuer\");\n        Credential[] storage userCredentials = credentials[recipient];\n\n        for (uint256 i = 0; i < userCredentials.length; i++) {\n            if (keccak256(abi.encodePacked(userCredentials[i].documentHash)) == keccak256(abi.encodePacked(documentHash))) {\n                userCredentials[i].revoked = true;\n                emit CredentialRevoked(recipient, documentHash);\n                break;\n            }\n        }\n    }\n\n    function verifyCredential(address recipient, string memory documentHash) public view returns (bool) {\n        Credential[] storage userCredentials = credentials[recipient];\n\n        for (uint256 i = 0; i < userCredentials.length; i++) {\n            if (\n                keccak256(abi.encodePacked(userCredentials[i].documentHash)) == keccak256(abi.encodePacked(documentHash)) &&\n                !userCredentials[i].revoked\n            ) {\n                return true;\n            }\n        }\n\n        return false;\n    }\n\n    function updateCredentialDefinition(address organization, uint256 definitionIndex, uint256 newVersion) public {\n        require(hasRole(ISSUER_ROLE, msg.sender), \"Caller is not an issuer\");\n        CredentialDefinition storage definition = credentialDefinitions[organization][definitionIndex];\n        definition.version = newVersion;\n    }\n\n    function getCredentialAttribute(address recipient, uint256 credentialIndex, string memory key) public view returns (string memory) {\n        Credential storage credential = credentials[recipient][credentialIndex];\n        for (uint256 i = 0; i < credential.attributeKeys.length; i++) {\n            if (keccak256(abi.encodePacked(credential.attributeKeys[i])) == keccak256(abi.encodePacked(key))) {\n                return credential.attributeValues[i];\n            }\n        }\n        revert(\"Attribute not found\");\n    }\n\n    function requestProof(address recipient, string memory documentHash) public {\n        require(connections[msg.sender][recipient].active, \"Connection not established\");\n\n        ProofRequest memory newRequest = ProofRequest({\n            requester: msg.sender,\n            documentHash: documentHash,\n            responded: false,\n            valid: false,\n            proof: \"\"\n        });\n\n        proofRequests[recipient].push(newRequest);\n        emit ProofRequested(msg.sender, recipient, documentHash);\n    }\n\n    function respondProof(uint256 requestIndex, bool isValid, string memory proof) public {\n        ProofRequest storage request = proofRequests[msg.sender][requestIndex];\n        require(!request.responded, \"Proof request already responded\");\n\n        request.responded = true;\n        request.valid = isValid;\n        request.proof = proof;\n\n        emit ProofResponded(msg.sender, request.requester, request.documentHash, isValid, proof);\n    }\n}\n",
  "sourcePath": "/Users/pranavlaygude/Desktop/Workspace/TrustChain/blockchain/contracts/DocumentRegistry.sol",
  "compiler": {
    "name": "solc",
    "version": "0.8.20+commit.a1b79de6.Emscripten.clang"
  },
  "schemaVersion": "3.4.16",
  "updatedAt": "2024-05-28T19:08:46.366Z",
  "networkType": "ethereum",
  "devdoc": {
    "errors": {
      "AccessControlBadConfirmation()": [
        {
          "details": "The caller of a function is not the expected one. NOTE: Don't confuse with {AccessControlUnauthorizedAccount}."
        }
      ],
      "AccessControlUnauthorizedAccount(address,bytes32)": [
        {
          "details": "The `account` is missing a role."
        }
      ]
    },
    "events": {
      "RoleAdminChanged(bytes32,bytes32,bytes32)": {
        "details": "Emitted when `newAdminRole` is set as ``role``'s admin role, replacing `previousAdminRole` `DEFAULT_ADMIN_ROLE` is the starting admin for all roles, despite {RoleAdminChanged} not being emitted signaling this."
      },
      "RoleGranted(bytes32,address,address)": {
        "details": "Emitted when `account` is granted `role`. `sender` is the account that originated the contract call, an admin role bearer except when using {AccessControl-_setupRole}."
      },
      "RoleRevoked(bytes32,address,address)": {
        "details": "Emitted when `account` is revoked `role`. `sender` is the account that originated the contract call:   - if using `revokeRole`, it is the admin role bearer   - if using `renounceRole`, it is the role bearer (i.e. `account`)"
      }
    },
    "kind": "dev",
    "methods": {
      "getRoleAdmin(bytes32)": {
        "details": "Returns the admin role that controls `role`. See {grantRole} and {revokeRole}. To change a role's admin, use {_setRoleAdmin}."
      },
      "grantRole(bytes32,address)": {
        "details": "Grants `role` to `account`. If `account` had not been already granted `role`, emits a {RoleGranted} event. Requirements: - the caller must have ``role``'s admin role. May emit a {RoleGranted} event."
      },
      "hasRole(bytes32,address)": {
        "details": "Returns `true` if `account` has been granted `role`."
      },
      "renounceRole(bytes32,address)": {
        "details": "Revokes `role` from the calling account. Roles are often managed via {grantRole} and {revokeRole}: this function's purpose is to provide a mechanism for accounts to lose their privileges if they are compromised (such as when a trusted device is misplaced). If the calling account had been revoked `role`, emits a {RoleRevoked} event. Requirements: - the caller must be `callerConfirmation`. May emit a {RoleRevoked} event."
      },
      "revokeRole(bytes32,address)": {
        "details": "Revokes `role` from `account`. If `account` had been granted `role`, emits a {RoleRevoked} event. Requirements: - the caller must have ``role``'s admin role. May emit a {RoleRevoked} event."
      },
      "supportsInterface(bytes4)": {
        "details": "See {IERC165-supportsInterface}."
      }
    },
    "version": 1
  },
  "userdoc": {
    "kind": "user",
    "methods": {},
    "version": 1
  }
}