{
  "contractName": "DocumentRegistry",
  "abi": [
    {
      "inputs": [],
      "stateMutability": "nonpayable",
      "type": "constructor"
    },
    {
      "inputs": [],
      "name": "AccessControlBadConfirmation",
      "type": "error"
    },
    {
      "inputs": [
        {
          "internalType": "address",
          "name": "account",
          "type": "address"
        },
        {
          "internalType": "bytes32",
          "name": "neededRole",
          "type": "bytes32"
        }
      ],
      "name": "AccessControlUnauthorizedAccount",
      "type": "error"
    },
    {
      "anonymous": false,
      "inputs": [
        {
          "indexed": true,
          "internalType": "address",
          "name": "issuer",
          "type": "address"
        },
        {
          "indexed": true,
          "internalType": "address",
          "name": "recipient",
          "type": "address"
        },
        {
          "indexed": false,
          "internalType": "string",
          "name": "documentHash",
          "type": "string"
        },
        {
          "indexed": false,
          "internalType": "uint256",
          "name": "timestamp",
          "type": "uint256"
        }
      ],
      "name": "CredentialIssued",
      "type": "event"
    },
    {
      "anonymous": false,
      "inputs": [
        {
          "indexed": true,
          "internalType": "address",
          "name": "recipient",
          "type": "address"
        },
        {
          "indexed": false,
          "internalType": "string",
          "name": "documentHash",
          "type": "string"
        }
      ],
      "name": "CredentialRevoked",
      "type": "event"
    },
    {
      "anonymous": false,
      "inputs": [
        {
          "indexed": true,
          "internalType": "address",
          "name": "requester",
          "type": "address"
        },
        {
          "indexed": true,
          "internalType": "address",
          "name": "recipient",
          "type": "address"
        },
        {
          "indexed": false,
          "internalType": "string",
          "name": "documentHash",
          "type": "string"
        }
      ],
      "name": "ProofRequested",
      "type": "event"
    },
    {
      "anonymous": false,
      "inputs": [
        {
          "indexed": true,
          "internalType": "address",
          "name": "recipient",
          "type": "address"
        },
        {
          "indexed": true,
          "internalType": "address",
          "name": "requester",
          "type": "address"
        },
        {
          "indexed": false,
          "internalType": "string",
          "name": "documentHash",
          "type": "string"
        },
        {
          "indexed": false,
          "internalType": "bool",
          "name": "valid",
          "type": "bool"
        }
      ],
      "name": "ProofResponded",
      "type": "event"
    },
    {
      "anonymous": false,
      "inputs": [
        {
          "indexed": true,
          "internalType": "bytes32",
          "name": "role",
          "type": "bytes32"
        },
        {
          "indexed": true,
          "internalType": "bytes32",
          "name": "previousAdminRole",
          "type": "bytes32"
        },
        {
          "indexed": true,
          "internalType": "bytes32",
          "name": "newAdminRole",
          "type": "bytes32"
        }
      ],
      "name": "RoleAdminChanged",
      "type": "event"
    },
    {
      "anonymous": false,
      "inputs": [
        {
          "indexed": true,
          "internalType": "bytes32",
          "name": "role",
          "type": "bytes32"
        },
        {
          "indexed": true,
          "internalType": "address",
          "name": "account",
          "type": "address"
        },
        {
          "indexed": true,
          "internalType": "address",
          "name": "sender",
          "type": "address"
        }
      ],
      "name": "RoleGranted",
      "type": "event"
    },
    {
      "anonymous": false,
      "inputs": [
        {
          "indexed": true,
          "internalType": "bytes32",
          "name": "role",
          "type": "bytes32"
        },
        {
          "indexed": true,
          "internalType": "address",
          "name": "account",
          "type": "address"
        },
        {
          "indexed": true,
          "internalType": "address",
          "name": "sender",
          "type": "address"
        }
      ],
      "name": "RoleRevoked",
      "type": "event"
    },
    {
      "inputs": [],
      "name": "DEFAULT_ADMIN_ROLE",
      "outputs": [
        {
          "internalType": "bytes32",
          "name": "",
          "type": "bytes32"
        }
      ],
      "stateMutability": "view",
      "type": "function",
      "constant": true
    },
    {
      "inputs": [],
      "name": "ISSUER_ROLE",
      "outputs": [
        {
          "internalType": "bytes32",
          "name": "",
          "type": "bytes32"
        }
      ],
      "stateMutability": "view",
      "type": "function",
      "constant": true
    },
    {
      "inputs": [
        {
          "internalType": "address",
          "name": "",
          "type": "address"
        },
        {
          "internalType": "uint256",
          "name": "",
          "type": "uint256"
        }
      ],
      "name": "credentialDefinitions",
      "outputs": [
        {
          "internalType": "string",
          "name": "definitionName",
          "type": "string"
        },
        {
          "internalType": "uint256",
          "name": "version",
          "type": "uint256"
        },
        {
          "internalType": "bool",
          "name": "active",
          "type": "bool"
        }
      ],
      "stateMutability": "view",
      "type": "function",
      "constant": true
    },
    {
      "inputs": [
        {
          "internalType": "address",
          "name": "",
          "type": "address"
        },
        {
          "internalType": "uint256",
          "name": "",
          "type": "uint256"
        }
      ],
      "name": "credentials",
      "outputs": [
        {
          "internalType": "string",
          "name": "documentHash",
          "type": "string"
        },
        {
          "internalType": "uint256",
          "name": "timestamp",
          "type": "uint256"
        },
        {
          "internalType": "bool",
          "name": "revoked",
          "type": "bool"
        }
      ],
      "stateMutability": "view",
      "type": "function",
      "constant": true
    },
    {
      "inputs": [
        {
          "internalType": "bytes32",
          "name": "role",
          "type": "bytes32"
        }
      ],
      "name": "getRoleAdmin",
      "outputs": [
        {
          "internalType": "bytes32",
          "name": "",
          "type": "bytes32"
        }
      ],
      "stateMutability": "view",
      "type": "function",
      "constant": true
    },
    {
      "inputs": [
        {
          "internalType": "bytes32",
          "name": "role",
          "type": "bytes32"
        },
        {
          "internalType": "address",
          "name": "account",
          "type": "address"
        }
      ],
      "name": "grantRole",
      "outputs": [],
      "stateMutability": "nonpayable",
      "type": "function"
    },
    {
      "inputs": [
        {
          "internalType": "bytes32",
          "name": "role",
          "type": "bytes32"
        },
        {
          "internalType": "address",
          "name": "account",
          "type": "address"
        }
      ],
      "name": "hasRole",
      "outputs": [
        {
          "internalType": "bool",
          "name": "",
          "type": "bool"
        }
      ],
      "stateMutability": "view",
      "type": "function",
      "constant": true
    },
    {
      "inputs": [
        {
          "internalType": "address",
          "name": "",
          "type": "address"
        },
        {
          "internalType": "uint256",
          "name": "",
          "type": "uint256"
        }
      ],
      "name": "proofRequests",
      "outputs": [
        {
          "internalType": "address",
          "name": "requester",
          "type": "address"
        },
        {
          "internalType": "string",
          "name": "documentHash",
          "type": "string"
        },
        {
          "internalType": "bool",
          "name": "responded",
          "type": "bool"
        },
        {
          "internalType": "bool",
          "name": "valid",
          "type": "bool"
        }
      ],
      "stateMutability": "view",
      "type": "function",
      "constant": true
    },
    {
      "inputs": [
        {
          "internalType": "bytes32",
          "name": "role",
          "type": "bytes32"
        },
        {
          "internalType": "address",
          "name": "callerConfirmation",
          "type": "address"
        }
      ],
      "name": "renounceRole",
      "outputs": [],
      "stateMutability": "nonpayable",
      "type": "function"
    },
    {
      "inputs": [
        {
          "internalType": "bytes32",
          "name": "role",
          "type": "bytes32"
        },
        {
          "internalType": "address",
          "name": "account",
          "type": "address"
        }
      ],
      "name": "revokeRole",
      "outputs": [],
      "stateMutability": "nonpayable",
      "type": "function"
    },
    {
      "inputs": [
        {
          "internalType": "bytes4",
          "name": "interfaceId",
          "type": "bytes4"
        }
      ],
      "name": "supportsInterface",
      "outputs": [
        {
          "internalType": "bool",
          "name": "",
          "type": "bool"
        }
      ],
      "stateMutability": "view",
      "type": "function",
      "constant": true
    },
    {
      "inputs": [
        {
          "internalType": "string",
          "name": "definitionName",
          "type": "string"
        },
        {
          "internalType": "uint256",
          "name": "version",
          "type": "uint256"
        }
      ],
      "name": "createCredentialDefinition",
      "outputs": [],
      "stateMutability": "nonpayable",
      "type": "function"
    },
    {
      "inputs": [
        {
          "internalType": "address",
          "name": "recipient",
          "type": "address"
        },
        {
          "internalType": "string",
          "name": "documentHash",
          "type": "string"
        },
        {
          "internalType": "string[]",
          "name": "keys",
          "type": "string[]"
        },
        {
          "internalType": "string[]",
          "name": "values",
          "type": "string[]"
        }
      ],
      "name": "issueCredential",
      "outputs": [],
      "stateMutability": "nonpayable",
      "type": "function"
    },
    {
      "inputs": [
        {
          "internalType": "address",
          "name": "recipient",
          "type": "address"
        },
        {
          "internalType": "string",
          "name": "documentHash",
          "type": "string"
        }
      ],
      "name": "revokeCredential",
      "outputs": [],
      "stateMutability": "nonpayable",
      "type": "function"
    },
    {
      "inputs": [
        {
          "internalType": "address",
          "name": "recipient",
          "type": "address"
        },
        {
          "internalType": "string",
          "name": "documentHash",
          "type": "string"
        }
      ],
      "name": "verifyCredential",
      "outputs": [
        {
          "internalType": "bool",
          "name": "",
          "type": "bool"
        }
      ],
      "stateMutability": "view",
      "type": "function",
      "constant": true
    },
    {
      "inputs": [
        {
          "internalType": "address",
          "name": "organization",
          "type": "address"
        },
        {
          "internalType": "uint256",
          "name": "definitionIndex",
          "type": "uint256"
        },
        {
          "internalType": "uint256",
          "name": "newVersion",
          "type": "uint256"
        }
      ],
      "name": "updateCredentialDefinition",
      "outputs": [],
      "stateMutability": "nonpayable",
      "type": "function"
    },
    {
      "inputs": [
        {
          "internalType": "address",
          "name": "recipient",
          "type": "address"
        },
        {
          "internalType": "uint256",
          "name": "credentialIndex",
          "type": "uint256"
        },
        {
          "internalType": "string",
          "name": "key",
          "type": "string"
        }
      ],
      "name": "getCredentialAttribute",
      "outputs": [
        {
          "internalType": "string",
          "name": "",
          "type": "string"
        }
      ],
      "stateMutability": "view",
      "type": "function",
      "constant": true
    },
    {
      "inputs": [
        {
          "internalType": "address",
          "name": "recipient",
          "type": "address"
        },
        {
          "internalType": "string",
          "name": "documentHash",
          "type": "string"
        }
      ],
      "name": "requestProof",
      "outputs": [],
      "stateMutability": "nonpayable",
      "type": "function"
    },
    {
      "inputs": [
        {
          "internalType": "uint256",
          "name": "requestIndex",
          "type": "uint256"
        },
        {
          "internalType": "bool",
          "name": "isValid",
          "type": "bool"
        }
      ],
      "name": "respondProof",
      "outputs": [],
      "stateMutability": "nonpayable",
      "type": "function"
    }
  ],
  "bytecode": "0x60806040523480156200001157600080fd5b50620000276000801b336200006160201b60201c565b506200005a7f114e74f6ea3bd819998f78687bfcb11b140da08e9b7d222fa9c1f1ba1f2aa122336200006160201b60201c565b50620001d6565b60006200007583836200016460201b60201c565b6200015957600160008085815260200190815260200160002060000160008473ffffffffffffffffffffffffffffffffffffffff1673ffffffffffffffffffffffffffffffffffffffff16815260200190815260200160002060006101000a81548160ff021916908315150217905550620000f5620001ce60201b60201c565b73ffffffffffffffffffffffffffffffffffffffff168273ffffffffffffffffffffffffffffffffffffffff16847f2f8788117e7eff1d82e926ec794901d17c78024a50270940304540a733656f0d60405160405180910390a4600190506200015e565b600090505b92915050565b600080600084815260200190815260200160002060000160008373ffffffffffffffffffffffffffffffffffffffff1673ffffffffffffffffffffffffffffffffffffffff16815260200190815260200160002060009054906101000a900460ff16905092915050565b600033905090565b61288a80620001e66000396000f3fe608060405234801561001057600080fd5b50600436106101215760003560e01c806359ac4ea5116100ad578063a217fddf11610071578063a217fddf14610343578063b94f550c14610361578063d547741f1461037d578063debfd2a114610399578063e9fe7dfa146103b557610121565b806359ac4ea51461028a57806375cc2a10146102a657806382aefa24146102d957806391d14854146102f75780639615c5b31461032757610121565b8063209c7ad1116100f4578063209c7ad1146101c057806322dce85a146101f0578063248a9ca3146102225780632f2ff15d1461025257806336568abe1461026e57610121565b806301ffc9a71461012657806303cb278a1461015657806311488121146101885780631c8ff9a5146101a4575b600080fd5b610140600480360381019061013b919061190c565b6103e5565b60405161014d9190611954565b60405180910390f35b610170600480360381019061016b9190611a03565b61045f565b60405161017f93929190611ae2565b60405180910390f35b6101a2600480360381019061019d9190611d3b565b61053b565b005b6101be60048036038101906101b99190611df6565b610769565b005b6101da60048036038101906101d59190611e52565b6108a4565b6040516101e79190611954565b60405180910390f35b61020a60048036038101906102059190611a03565b6109d4565b60405161021993929190611ae2565b60405180910390f35b61023c60048036038101906102379190611ee4565b610ab0565b6040516102499190611f20565b60405180910390f35b61026c60048036038101906102679190611f3b565b610acf565b005b61028860048036038101906102839190611f3b565b610af1565b005b6102a4600480360381019061029f9190611e52565b610b6c565b005b6102c060048036038101906102bb9190611a03565b610d1f565b6040516102d09493929190611f8a565b60405180910390f35b6102e1610e2e565b6040516102ee9190611f20565b60405180910390f35b610311600480360381019061030c9190611f3b565b610e52565b60405161031e9190611954565b60405180910390f35b610341600480360381019061033c9190612002565b610ebc565b005b61034b61103d565b6040516103589190611f20565b60405180910390f35b61037b60048036038101906103769190611e52565b611044565b005b61039760048036038101906103929190611f3b565b61121e565b005b6103b360048036038101906103ae9190612042565b611240565b005b6103cf60048036038101906103ca9190612095565b61131b565b6040516103dc9190612104565b60405180910390f35b60007f7965db0b000000000000000000000000000000000000000000000000000000007bffffffffffffffffffffffffffffffffffffffffffffffffffffffff1916827bffffffffffffffffffffffffffffffffffffffffffffffffffffffff1916148061045857506104578261150c565b5b9050919050565b6002602052816000526040600020818154811061047b57600080fd5b90600052602060002090600502016000915091505080600001805461049f90612155565b80601f01602080910402602001604051908101604052809291908181526020018280546104cb90612155565b80156105185780601f106104ed57610100808354040283529160200191610518565b820191906000526020600020905b8154815290600101906020018083116104fb57829003601f168201915b5050505050908060010154908060020160009054906101000a900460ff16905083565b6105657f114e74f6ea3bd819998f78687bfcb11b140da08e9b7d222fa9c1f1ba1f2aa12233610e52565b6105a4576040517f08c379a000000000000000000000000000000000000000000000000000000000815260040161059b906121d2565b60405180910390fd5b80518251146105e8576040517f08c379a00000000000000000000000000000000000000000000000000000000081526004016105df9061223e565b60405180910390fd5b60006040518060a00160405280858152602001428152602001600015158152602001848152602001838152509050600260008673ffffffffffffffffffffffffffffffffffffffff1673ffffffffffffffffffffffffffffffffffffffff1681526020019081526020016000208190806001815401808255809150506001900390600052602060002090600502016000909190919091506000820151816000019081610694919061240a565b506020820151816001015560408201518160020160006101000a81548160ff02191690831515021790555060608201518160030190805190602001906106db9291906117c6565b5060808201518160040190805190602001906106f89291906117c6565b5050508473ffffffffffffffffffffffffffffffffffffffff163373ffffffffffffffffffffffffffffffffffffffff167f3cdce538b6db111fcf97c8cdfc0f65dcd4c7eaeea28abf410f46ad76daed828b864260405161075a9291906124dc565b60405180910390a35050505050565b6107937f114e74f6ea3bd819998f78687bfcb11b140da08e9b7d222fa9c1f1ba1f2aa12233610e52565b6107d2576040517f08c379a00000000000000000000000000000000000000000000000000000000081526004016107c9906121d2565b60405180910390fd5b60006040518060600160405280848152602001838152602001600115158152509050600160003373ffffffffffffffffffffffffffffffffffffffff1673ffffffffffffffffffffffffffffffffffffffff1681526020019081526020016000208190806001815401808255809150506001900390600052602060002090600302016000909190919091506000820151816000019081610872919061240a565b506020820151816001015560408201518160020160006101000a81548160ff0219169083151502179055505050505050565b600080600260008573ffffffffffffffffffffffffffffffffffffffff1673ffffffffffffffffffffffffffffffffffffffff168152602001908152602001600020905060005b81805490508110156109c757836040516020016109089190612548565b604051602081830303815290604052805190602001208282815481106109315761093061255f565b5b90600052602060002090600502016000016040516020016109529190612611565b604051602081830303815290604052805190602001201480156109a457508181815481106109835761098261255f565b5b906000526020600020906005020160020160009054906101000a900460ff16155b156109b4576001925050506109ce565b80806109bf90612657565b9150506108eb565b5060009150505b92915050565b600160205281600052604060002081815481106109f057600080fd5b906000526020600020906003020160009150915050806000018054610a1490612155565b80601f0160208091040260200160405190810160405280929190818152602001828054610a4090612155565b8015610a8d5780601f10610a6257610100808354040283529160200191610a8d565b820191906000526020600020905b815481529060010190602001808311610a7057829003601f168201915b5050505050908060010154908060020160009054906101000a900460ff16905083565b6000806000838152602001908152602001600020600101549050919050565b610ad882610ab0565b610ae181611576565b610aeb838361158a565b50505050565b610af961167b565b73ffffffffffffffffffffffffffffffffffffffff168173ffffffffffffffffffffffffffffffffffffffff1614610b5d576040517f6697b23200000000000000000000000000000000000000000000000000000000815260040160405180910390fd5b610b678282611683565b505050565b600060405180608001604052803373ffffffffffffffffffffffffffffffffffffffff168152602001838152602001600015158152602001600015158152509050600360008473ffffffffffffffffffffffffffffffffffffffff1673ffffffffffffffffffffffffffffffffffffffff16815260200190815260200160002081908060018154018082558091505060019003906000526020600020906003020160009091909190915060008201518160000160006101000a81548173ffffffffffffffffffffffffffffffffffffffff021916908373ffffffffffffffffffffffffffffffffffffffff1602179055506020820151816001019081610c72919061240a565b5060408201518160020160006101000a81548160ff02191690831515021790555060608201518160020160016101000a81548160ff02191690831515021790555050508273ffffffffffffffffffffffffffffffffffffffff163373ffffffffffffffffffffffffffffffffffffffff167f39425793a6e93f294caa0024ba155837466ea53c314cda16f0f86e03a1de215d84604051610d129190612104565b60405180910390a3505050565b60036020528160005260406000208181548110610d3b57600080fd5b9060005260206000209060030201600091509150508060000160009054906101000a900473ffffffffffffffffffffffffffffffffffffffff1690806001018054610d8590612155565b80601f0160208091040260200160405190810160405280929190818152602001828054610db190612155565b8015610dfe5780601f10610dd357610100808354040283529160200191610dfe565b820191906000526020600020905b815481529060010190602001808311610de157829003601f168201915b5050505050908060020160009054906101000a900460ff16908060020160019054906101000a900460ff16905084565b7f114e74f6ea3bd819998f78687bfcb11b140da08e9b7d222fa9c1f1ba1f2aa12281565b600080600084815260200190815260200160002060000160008373ffffffffffffffffffffffffffffffffffffffff1673ffffffffffffffffffffffffffffffffffffffff16815260200190815260200160002060009054906101000a900460ff16905092915050565b6000600360003373ffffffffffffffffffffffffffffffffffffffff1673ffffffffffffffffffffffffffffffffffffffff1681526020019081526020016000208381548110610f0f57610f0e61255f565b5b906000526020600020906003020190508060020160009054906101000a900460ff1615610f71576040517f08c379a0000000000000000000000000000000000000000000000000000000008152600401610f68906126eb565b60405180910390fd5b60018160020160006101000a81548160ff021916908315150217905550818160020160016101000a81548160ff0219169083151502179055508060000160009054906101000a900473ffffffffffffffffffffffffffffffffffffffff1673ffffffffffffffffffffffffffffffffffffffff163373ffffffffffffffffffffffffffffffffffffffff167fdd56c85be3dd9d5217d7a816397dd3654ce04714698642883bd39c3ed19d581a836001018560405161103092919061278f565b60405180910390a3505050565b6000801b81565b61106e7f114e74f6ea3bd819998f78687bfcb11b140da08e9b7d222fa9c1f1ba1f2aa12233610e52565b6110ad576040517f08c379a00000000000000000000000000000000000000000000000000000000081526004016110a4906121d2565b60405180910390fd5b6000600260008473ffffffffffffffffffffffffffffffffffffffff1673ffffffffffffffffffffffffffffffffffffffff168152602001908152602001600020905060005b818054905081101561121857826040516020016111109190612548565b604051602081830303815290604052805190602001208282815481106111395761113861255f565b5b906000526020600020906005020160000160405160200161115a9190612611565b604051602081830303815290604052805190602001200361120557600182828154811061118a5761118961255f565b5b906000526020600020906005020160020160006101000a81548160ff0219169083151502179055508373ffffffffffffffffffffffffffffffffffffffff167f47b59d3599ed2ba34f6334425c05eff11ba50848c9b4c4a10d73ddcc9c8c8d02846040516111f89190612104565b60405180910390a2611218565b808061121090612657565b9150506110f3565b50505050565b61122782610ab0565b61123081611576565b61123a8383611683565b50505050565b61126a7f114e74f6ea3bd819998f78687bfcb11b140da08e9b7d222fa9c1f1ba1f2aa12233610e52565b6112a9576040517f08c379a00000000000000000000000000000000000000000000000000000000081526004016112a0906121d2565b60405180910390fd5b6000600160008573ffffffffffffffffffffffffffffffffffffffff1673ffffffffffffffffffffffffffffffffffffffff16815260200190815260200160002083815481106112fc576112fb61255f565b5b9060005260206000209060030201905081816001018190555050505050565b60606000600260008673ffffffffffffffffffffffffffffffffffffffff1673ffffffffffffffffffffffffffffffffffffffff16815260200190815260200160002084815481106113705761136f61255f565b5b9060005260206000209060050201905060005b81600301805490508110156114c957836040516020016113a39190612548565b604051602081830303815290604052805190602001208260030182815481106113cf576113ce61255f565b5b906000526020600020016040516020016113e99190612611565b60405160208183030381529060405280519060200120036114b65781600401818154811061141a5761141961255f565b5b90600052602060002001805461142f90612155565b80601f016020809104026020016040519081016040528092919081815260200182805461145b90612155565b80156114a85780601f1061147d576101008083540402835291602001916114a8565b820191906000526020600020905b81548152906001019060200180831161148b57829003601f168201915b505050505092505050611505565b80806114c190612657565b915050611383565b506040517f08c379a00000000000000000000000000000000000000000000000000000000081526004016114fc9061280b565b60405180910390fd5b9392505050565b60007f01ffc9a7000000000000000000000000000000000000000000000000000000007bffffffffffffffffffffffffffffffffffffffffffffffffffffffff1916827bffffffffffffffffffffffffffffffffffffffffffffffffffffffff1916149050919050565b6115878161158261167b565b611775565b50565b60006115968383610e52565b61167057600160008085815260200190815260200160002060000160008473ffffffffffffffffffffffffffffffffffffffff1673ffffffffffffffffffffffffffffffffffffffff16815260200190815260200160002060006101000a81548160ff02191690831515021790555061160d61167b565b73ffffffffffffffffffffffffffffffffffffffff168273ffffffffffffffffffffffffffffffffffffffff16847f2f8788117e7eff1d82e926ec794901d17c78024a50270940304540a733656f0d60405160405180910390a460019050611675565b600090505b92915050565b600033905090565b600061168f8383610e52565b1561176a57600080600085815260200190815260200160002060000160008473ffffffffffffffffffffffffffffffffffffffff1673ffffffffffffffffffffffffffffffffffffffff16815260200190815260200160002060006101000a81548160ff02191690831515021790555061170761167b565b73ffffffffffffffffffffffffffffffffffffffff168273ffffffffffffffffffffffffffffffffffffffff16847ff6391f5c32d9c69d2a47ea670b442974b53935d1edc7fd64eb21e047a839171b60405160405180910390a46001905061176f565b600090505b92915050565b61177f8282610e52565b6117c25780826040517fe2517d3f0000000000000000000000000000000000000000000000000000000081526004016117b992919061282b565b60405180910390fd5b5050565b82805482825590600052602060002090810192821561180e579160200282015b8281111561180d5782518290816117fd919061240a565b50916020019190600101906117e6565b5b50905061181b919061181f565b5090565b5b8082111561183f57600081816118369190611843565b50600101611820565b5090565b50805461184f90612155565b6000825580601f106118615750611880565b601f01602090049060005260206000209081019061187f9190611883565b5b50565b5b8082111561189c576000816000905550600101611884565b5090565b6000604051905090565b600080fd5b600080fd5b60007fffffffff0000000000000000000000000000000000000000000000000000000082169050919050565b6118e9816118b4565b81146118f457600080fd5b50565b600081359050611906816118e0565b92915050565b600060208284031215611922576119216118aa565b5b6000611930848285016118f7565b91505092915050565b60008115159050919050565b61194e81611939565b82525050565b60006020820190506119696000830184611945565b92915050565b600073ffffffffffffffffffffffffffffffffffffffff82169050919050565b600061199a8261196f565b9050919050565b6119aa8161198f565b81146119b557600080fd5b50565b6000813590506119c7816119a1565b92915050565b6000819050919050565b6119e0816119cd565b81146119eb57600080fd5b50565b6000813590506119fd816119d7565b92915050565b60008060408385031215611a1a57611a196118aa565b5b6000611a28858286016119b8565b9250506020611a39858286016119ee565b9150509250929050565b600081519050919050565b600082825260208201905092915050565b60005b83811015611a7d578082015181840152602081019050611a62565b60008484015250505050565b6000601f19601f8301169050919050565b6000611aa582611a43565b611aaf8185611a4e565b9350611abf818560208601611a5f565b611ac881611a89565b840191505092915050565b611adc816119cd565b82525050565b60006060820190508181036000830152611afc8186611a9a565b9050611b0b6020830185611ad3565b611b186040830184611945565b949350505050565b600080fd5b600080fd5b7f4e487b7100000000000000000000000000000000000000000000000000000000600052604160045260246000fd5b611b6282611a89565b810181811067ffffffffffffffff82111715611b8157611b80611b2a565b5b80604052505050565b6000611b946118a0565b9050611ba08282611b59565b919050565b600067ffffffffffffffff821115611bc057611bbf611b2a565b5b611bc982611a89565b9050602081019050919050565b82818337600083830152505050565b6000611bf8611bf384611ba5565b611b8a565b905082815260208101848484011115611c1457611c13611b25565b5b611c1f848285611bd6565b509392505050565b600082601f830112611c3c57611c3b611b20565b5b8135611c4c848260208601611be5565b91505092915050565b600067ffffffffffffffff821115611c7057611c6f611b2a565b5b602082029050602081019050919050565b600080fd5b6000611c99611c9484611c55565b611b8a565b90508083825260208201905060208402830185811115611cbc57611cbb611c81565b5b835b81811015611d0357803567ffffffffffffffff811115611ce157611ce0611b20565b5b808601611cee8982611c27565b85526020850194505050602081019050611cbe565b5050509392505050565b600082601f830112611d2257611d21611b20565b5b8135611d32848260208601611c86565b91505092915050565b60008060008060808587031215611d5557611d546118aa565b5b6000611d63878288016119b8565b945050602085013567ffffffffffffffff811115611d8457611d836118af565b5b611d9087828801611c27565b935050604085013567ffffffffffffffff811115611db157611db06118af565b5b611dbd87828801611d0d565b925050606085013567ffffffffffffffff811115611dde57611ddd6118af565b5b611dea87828801611d0d565b91505092959194509250565b60008060408385031215611e0d57611e0c6118aa565b5b600083013567ffffffffffffffff811115611e2b57611e2a6118af565b5b611e3785828601611c27565b9250506020611e48858286016119ee565b9150509250929050565b60008060408385031215611e6957611e686118aa565b5b6000611e77858286016119b8565b925050602083013567ffffffffffffffff811115611e9857611e976118af565b5b611ea485828601611c27565b9150509250929050565b6000819050919050565b611ec181611eae565b8114611ecc57600080fd5b50565b600081359050611ede81611eb8565b92915050565b600060208284031215611efa57611ef96118aa565b5b6000611f0884828501611ecf565b91505092915050565b611f1a81611eae565b82525050565b6000602082019050611f356000830184611f11565b92915050565b60008060408385031215611f5257611f516118aa565b5b6000611f6085828601611ecf565b9250506020611f71858286016119b8565b9150509250929050565b611f848161198f565b82525050565b6000608082019050611f9f6000830187611f7b565b8181036020830152611fb18186611a9a565b9050611fc06040830185611945565b611fcd6060830184611945565b95945050505050565b611fdf81611939565b8114611fea57600080fd5b50565b600081359050611ffc81611fd6565b92915050565b60008060408385031215612019576120186118aa565b5b6000612027858286016119ee565b925050602061203885828601611fed565b9150509250929050565b60008060006060848603121561205b5761205a6118aa565b5b6000612069868287016119b8565b935050602061207a868287016119ee565b925050604061208b868287016119ee565b9150509250925092565b6000806000606084860312156120ae576120ad6118aa565b5b60006120bc868287016119b8565b93505060206120cd868287016119ee565b925050604084013567ffffffffffffffff8111156120ee576120ed6118af565b5b6120fa86828701611c27565b9150509250925092565b6000602082019050818103600083015261211e8184611a9a565b905092915050565b7f4e487b7100000000000000000000000000000000000000000000000000000000600052602260045260246000fd5b6000600282049050600182168061216d57607f821691505b6020821081036121805761217f612126565b5b50919050565b7f43616c6c6572206973206e6f7420616e20697373756572000000000000000000600082015250565b60006121bc601783611a4e565b91506121c782612186565b602082019050919050565b600060208201905081810360008301526121eb816121af565b9050919050565b7f4b65797320616e642076616c756573206c656e677468206d69736d6174636800600082015250565b6000612228601f83611a4e565b9150612233826121f2565b602082019050919050565b600060208201905081810360008301526122578161221b565b9050919050565b60008190508160005260206000209050919050565b60006020601f8301049050919050565b600082821b905092915050565b6000600883026122c07fffffffffffffffffffffffffffffffffffffffffffffffffffffffffffffffff82612283565b6122ca8683612283565b95508019841693508086168417925050509392505050565b6000819050919050565b60006123076123026122fd846119cd565b6122e2565b6119cd565b9050919050565b6000819050919050565b612321836122ec565b61233561232d8261230e565b848454612290565b825550505050565b600090565b61234a61233d565b612355818484612318565b505050565b5b818110156123795761236e600082612342565b60018101905061235b565b5050565b601f8211156123be5761238f8161225e565b61239884612273565b810160208510156123a7578190505b6123bb6123b385612273565b83018261235a565b50505b505050565b600082821c905092915050565b60006123e1600019846008026123c3565b1980831691505092915050565b60006123fa83836123d0565b9150826002028217905092915050565b61241382611a43565b67ffffffffffffffff81111561242c5761242b611b2a565b5b6124368254612155565b61244182828561237d565b600060209050601f8311600181146124745760008415612462578287015190505b61246c85826123ee565b8655506124d4565b601f1984166124828661225e565b60005b828110156124aa57848901518255600182019150602085019450602081019050612485565b868310156124c757848901516124c3601f8916826123d0565b8355505b6001600288020188555050505b505050505050565b600060408201905081810360008301526124f68185611a9a565b90506125056020830184611ad3565b9392505050565b600081905092915050565b600061252282611a43565b61252c818561250c565b935061253c818560208601611a5f565b80840191505092915050565b60006125548284612517565b915081905092915050565b7f4e487b7100000000000000000000000000000000000000000000000000000000600052603260045260246000fd5b6000815461259b81612155565b6125a5818661250c565b945060018216600081146125c057600181146125d557612608565b60ff1983168652811515820286019350612608565b6125de8561225e565b60005b83811015612600578154818901526001820191506020810190506125e1565b838801955050505b50505092915050565b600061261d828461258e565b915081905092915050565b7f4e487b7100000000000000000000000000000000000000000000000000000000600052601160045260246000fd5b6000612662826119cd565b91507fffffffffffffffffffffffffffffffffffffffffffffffffffffffffffffffff820361269457612693612628565b5b600182019050919050565b7f50726f6f66207265717565737420616c726561647920726573706f6e64656400600082015250565b60006126d5601f83611a4e565b91506126e08261269f565b602082019050919050565b60006020820190508181036000830152612704816126c8565b9050919050565b6000815461271881612155565b6127228186611a4e565b9450600182166000811461273d576001811461275357612786565b60ff198316865281151560200286019350612786565b61275c8561225e565b60005b8381101561277e5781548189015260018201915060208101905061275f565b808801955050505b50505092915050565b600060408201905081810360008301526127a9818561270b565b90506127b86020830184611945565b9392505050565b7f417474726962757465206e6f7420666f756e6400000000000000000000000000600082015250565b60006127f5601383611a4e565b9150612800826127bf565b602082019050919050565b60006020820190508181036000830152612824816127e8565b9050919050565b60006040820190506128406000830185611f7b565b61284d6020830184611f11565b939250505056fea2646970667358221220913e8af863c450098c61c470842c5379eb09ad4c41ac784847a08148cd45775c64736f6c63430008140033",
  "immutableReferences": {},
  "source": "// SPDX-License-Identifier: MIT\npragma solidity ^0.8.20;\n\nimport \"@openzeppelin/contracts/access/AccessControl.sol\";\n\ncontract DocumentRegistry is AccessControl {\n    bytes32 public constant ISSUER_ROLE = keccak256(\"ISSUER_ROLE\");\n\n    // Struct to represent a Credential\n    struct Credential {\n        string documentHash;\n        uint256 timestamp;\n        bool revoked;\n        // Using dynamic arrays to store attributes key-value pairs\n        string[] attributeKeys;\n        string[] attributeValues;\n    }\n\n    // Struct to represent a Credential Definition\n    struct CredentialDefinition {\n        string definitionName;\n        uint256 version;\n        bool active;\n    }\n\n    // Struct to represent a Proof Request\n    struct ProofRequest {\n        address requester;\n        string documentHash;\n        bool responded;\n        bool valid;\n    }\n\n    // Mapping from organization address to their list of credential definitions\n    mapping(address => CredentialDefinition[]) public credentialDefinitions;\n\n    // Mapping from recipient address to their list of credentials\n    mapping(address => Credential[]) public credentials;\n\n    // Mapping from recipient address to proof requests\n    mapping(address => ProofRequest[]) public proofRequests;\n\n    // Event to emit when a credential is issued\n    event CredentialIssued(address indexed issuer, address indexed recipient, string documentHash, uint256 timestamp);\n\n    // Event to emit when a credential is revoked\n    event CredentialRevoked(address indexed recipient, string documentHash);\n\n    // Event to emit when a proof request is made\n    event ProofRequested(address indexed requester, address indexed recipient, string documentHash);\n\n    // Event to emit when a proof response is made\n    event ProofResponded(address indexed recipient, address indexed requester, string documentHash, bool valid);\n\n    // Constructor to set up roles\n    constructor() {\n        _grantRole(DEFAULT_ADMIN_ROLE, msg.sender);\n        _grantRole(ISSUER_ROLE, msg.sender);\n    }\n\n    // Function to create a new credential definition\n    function createCredentialDefinition(string memory definitionName, uint256 version) public {\n        require(hasRole(ISSUER_ROLE, msg.sender), \"Caller is not an issuer\");\n        CredentialDefinition memory newDefinition = CredentialDefinition({\n            definitionName: definitionName,\n            version: version,\n            active: true\n        });\n\n        credentialDefinitions[msg.sender].push(newDefinition);\n    }\n\n    // Function to issue a credential to a recipient with dynamic attributes\n    function issueCredential(\n        address recipient,\n        string memory documentHash,\n        string[] memory keys,\n        string[] memory values\n    ) public {\n        require(hasRole(ISSUER_ROLE, msg.sender), \"Caller is not an issuer\");\n        require(keys.length == values.length, \"Keys and values length mismatch\");\n\n        // Create a new Credential struct\n        Credential memory newCredential = Credential({\n            documentHash: documentHash,\n            timestamp: block.timestamp,\n            revoked: false,\n            attributeKeys: keys,\n            attributeValues: values\n        });\n\n        // Add the credential to the recipient's list\n        credentials[recipient].push(newCredential);\n\n        // Emit the CredentialIssued event\n        emit CredentialIssued(msg.sender, recipient, documentHash, block.timestamp);\n    }\n\n    // Function to revoke a credential\n    function revokeCredential(address recipient, string memory documentHash) public {\n        require(hasRole(ISSUER_ROLE, msg.sender), \"Caller is not an issuer\");\n        Credential[] storage userCredentials = credentials[recipient];\n\n        // Iterate through the list to find and revoke the matching credential\n        for (uint256 i = 0; i < userCredentials.length; i++) {\n            if (keccak256(abi.encodePacked(userCredentials[i].documentHash)) == keccak256(abi.encodePacked(documentHash))) {\n                userCredentials[i].revoked = true;\n                emit CredentialRevoked(recipient, documentHash);\n                break;\n            }\n        }\n    }\n\n    // Function to verify if a credential exists for a recipient and is not revoked\n    function verifyCredential(address recipient, string memory documentHash) public view returns (bool) {\n        Credential[] storage userCredentials = credentials[recipient];\n\n        // Iterate through the list to find a matching and non-revoked credential\n        for (uint256 i = 0; i < userCredentials.length; i++) {\n            if (\n                keccak256(abi.encodePacked(userCredentials[i].documentHash)) == keccak256(abi.encodePacked(documentHash)) &&\n                !userCredentials[i].revoked\n            ) {\n                return true;\n            }\n        }\n\n        // Return false if no matching credential is found or if it is revoked\n        return false;\n    }\n\n    // Function to update the version of a credential definition\n    function updateCredentialDefinition(address organization, uint256 definitionIndex, uint256 newVersion) public {\n        require(hasRole(ISSUER_ROLE, msg.sender), \"Caller is not an issuer\");\n        CredentialDefinition storage definition = credentialDefinitions[organization][definitionIndex];\n        definition.version = newVersion;\n    }\n\n    // Function to get an attribute of a credential\n    function getCredentialAttribute(address recipient, uint256 credentialIndex, string memory key) public view returns (string memory) {\n        Credential storage credential = credentials[recipient][credentialIndex];\n        for (uint256 i = 0; i < credential.attributeKeys.length; i++) {\n            if (keccak256(abi.encodePacked(credential.attributeKeys[i])) == keccak256(abi.encodePacked(key))) {\n                return credential.attributeValues[i];\n            }\n        }\n        revert(\"Attribute not found\");\n    }\n\n    // Function to request proof of a credential\n    function requestProof(address recipient, string memory documentHash) public {\n        ProofRequest memory newRequest = ProofRequest({\n            requester: msg.sender,\n            documentHash: documentHash,\n            responded: false,\n            valid: false\n        });\n\n        proofRequests[recipient].push(newRequest);\n        emit ProofRequested(msg.sender, recipient, documentHash);\n    }\n\n    // Function to respond to a proof request\n    function respondProof(uint256 requestIndex, bool isValid) public {\n        ProofRequest storage request = proofRequests[msg.sender][requestIndex];\n        require(!request.responded, \"Proof request already responded\");\n\n        request.responded = true;\n        request.valid = isValid;\n\n        emit ProofResponded(msg.sender, request.requester, request.documentHash, isValid);\n    }\n}\n",
  "sourcePath": "/Users/pranavlaygude/Desktop/Workspace/TrustChain/blockchain/contracts/DocumentRegistry.sol",
  "compiler": {
    "name": "solc",
    "version": "0.8.20+commit.a1b79de6.Emscripten.clang"
  },
  "schemaVersion": "3.4.16",
  "updatedAt": "2024-05-26T14:52:06.778Z",
  "networkType": "ethereum",
  "devdoc": {
    "errors": {
      "AccessControlBadConfirmation()": [
        {
          "details": "The caller of a function is not the expected one. NOTE: Don't confuse with {AccessControlUnauthorizedAccount}."
        }
      ],
      "AccessControlUnauthorizedAccount(address,bytes32)": [
        {
          "details": "The `account` is missing a role."
        }
      ]
    },
    "events": {
      "RoleAdminChanged(bytes32,bytes32,bytes32)": {
        "details": "Emitted when `newAdminRole` is set as ``role``'s admin role, replacing `previousAdminRole` `DEFAULT_ADMIN_ROLE` is the starting admin for all roles, despite {RoleAdminChanged} not being emitted signaling this."
      },
      "RoleGranted(bytes32,address,address)": {
        "details": "Emitted when `account` is granted `role`. `sender` is the account that originated the contract call, an admin role bearer except when using {AccessControl-_setupRole}."
      },
      "RoleRevoked(bytes32,address,address)": {
        "details": "Emitted when `account` is revoked `role`. `sender` is the account that originated the contract call:   - if using `revokeRole`, it is the admin role bearer   - if using `renounceRole`, it is the role bearer (i.e. `account`)"
      }
    },
    "kind": "dev",
    "methods": {
      "getRoleAdmin(bytes32)": {
        "details": "Returns the admin role that controls `role`. See {grantRole} and {revokeRole}. To change a role's admin, use {_setRoleAdmin}."
      },
      "grantRole(bytes32,address)": {
        "details": "Grants `role` to `account`. If `account` had not been already granted `role`, emits a {RoleGranted} event. Requirements: - the caller must have ``role``'s admin role. May emit a {RoleGranted} event."
      },
      "hasRole(bytes32,address)": {
        "details": "Returns `true` if `account` has been granted `role`."
      },
      "renounceRole(bytes32,address)": {
        "details": "Revokes `role` from the calling account. Roles are often managed via {grantRole} and {revokeRole}: this function's purpose is to provide a mechanism for accounts to lose their privileges if they are compromised (such as when a trusted device is misplaced). If the calling account had been revoked `role`, emits a {RoleRevoked} event. Requirements: - the caller must be `callerConfirmation`. May emit a {RoleRevoked} event."
      },
      "revokeRole(bytes32,address)": {
        "details": "Revokes `role` from `account`. If `account` had been granted `role`, emits a {RoleRevoked} event. Requirements: - the caller must have ``role``'s admin role. May emit a {RoleRevoked} event."
      },
      "supportsInterface(bytes4)": {
        "details": "See {IERC165-supportsInterface}."
      }
    },
    "version": 1
  },
  "userdoc": {
    "kind": "user",
    "methods": {},
    "version": 1
  }
}