{
  "contractName": "DocumentRegistry",
  "abi": [
    {
      "anonymous": false,
      "inputs": [
        {
          "indexed": true,
          "internalType": "address",
          "name": "issuer",
          "type": "address"
        },
        {
          "indexed": true,
          "internalType": "address",
          "name": "recipient",
          "type": "address"
        },
        {
          "indexed": false,
          "internalType": "string",
          "name": "documentHash",
          "type": "string"
        },
        {
          "indexed": false,
          "internalType": "uint256",
          "name": "timestamp",
          "type": "uint256"
        }
      ],
      "name": "CredentialIssued",
      "type": "event"
    },
    {
      "anonymous": false,
      "inputs": [
        {
          "indexed": true,
          "internalType": "address",
          "name": "recipient",
          "type": "address"
        },
        {
          "indexed": false,
          "internalType": "string",
          "name": "documentHash",
          "type": "string"
        }
      ],
      "name": "CredentialRevoked",
      "type": "event"
    },
    {
      "inputs": [
        {
          "internalType": "address",
          "name": "",
          "type": "address"
        },
        {
          "internalType": "uint256",
          "name": "",
          "type": "uint256"
        }
      ],
      "name": "credentialDefinitions",
      "outputs": [
        {
          "internalType": "string",
          "name": "definitionName",
          "type": "string"
        },
        {
          "internalType": "uint256",
          "name": "version",
          "type": "uint256"
        },
        {
          "internalType": "bool",
          "name": "active",
          "type": "bool"
        }
      ],
      "stateMutability": "view",
      "type": "function",
      "constant": true
    },
    {
      "inputs": [
        {
          "internalType": "address",
          "name": "",
          "type": "address"
        },
        {
          "internalType": "uint256",
          "name": "",
          "type": "uint256"
        }
      ],
      "name": "credentials",
      "outputs": [
        {
          "internalType": "string",
          "name": "documentHash",
          "type": "string"
        },
        {
          "internalType": "uint256",
          "name": "timestamp",
          "type": "uint256"
        },
        {
          "internalType": "bool",
          "name": "revoked",
          "type": "bool"
        }
      ],
      "stateMutability": "view",
      "type": "function",
      "constant": true
    },
    {
      "inputs": [
        {
          "internalType": "string",
          "name": "definitionName",
          "type": "string"
        },
        {
          "internalType": "uint256",
          "name": "version",
          "type": "uint256"
        }
      ],
      "name": "createCredentialDefinition",
      "outputs": [],
      "stateMutability": "nonpayable",
      "type": "function"
    },
    {
      "inputs": [
        {
          "internalType": "address",
          "name": "recipient",
          "type": "address"
        },
        {
          "internalType": "string",
          "name": "documentHash",
          "type": "string"
        },
        {
          "internalType": "string[]",
          "name": "keys",
          "type": "string[]"
        },
        {
          "internalType": "string[]",
          "name": "values",
          "type": "string[]"
        }
      ],
      "name": "issueCredential",
      "outputs": [],
      "stateMutability": "nonpayable",
      "type": "function"
    },
    {
      "inputs": [
        {
          "internalType": "address",
          "name": "recipient",
          "type": "address"
        },
        {
          "internalType": "string",
          "name": "documentHash",
          "type": "string"
        }
      ],
      "name": "revokeCredential",
      "outputs": [],
      "stateMutability": "nonpayable",
      "type": "function"
    },
    {
      "inputs": [
        {
          "internalType": "address",
          "name": "recipient",
          "type": "address"
        },
        {
          "internalType": "string",
          "name": "documentHash",
          "type": "string"
        }
      ],
      "name": "verifyCredential",
      "outputs": [
        {
          "internalType": "bool",
          "name": "",
          "type": "bool"
        }
      ],
      "stateMutability": "view",
      "type": "function",
      "constant": true
    },
    {
      "inputs": [
        {
          "internalType": "address",
          "name": "organization",
          "type": "address"
        },
        {
          "internalType": "uint256",
          "name": "definitionIndex",
          "type": "uint256"
        },
        {
          "internalType": "uint256",
          "name": "newVersion",
          "type": "uint256"
        }
      ],
      "name": "updateCredentialDefinition",
      "outputs": [],
      "stateMutability": "nonpayable",
      "type": "function"
    },
    {
      "inputs": [
        {
          "internalType": "address",
          "name": "recipient",
          "type": "address"
        },
        {
          "internalType": "uint256",
          "name": "credentialIndex",
          "type": "uint256"
        },
        {
          "internalType": "string",
          "name": "key",
          "type": "string"
        }
      ],
      "name": "getCredentialAttribute",
      "outputs": [
        {
          "internalType": "string",
          "name": "",
          "type": "string"
        }
      ],
      "stateMutability": "view",
      "type": "function",
      "constant": true
    }
  ],
  "bytecode": "0x608060405234801561001057600080fd5b50611687806100206000396000f3fe608060405234801561001057600080fd5b50600436106100885760003560e01c806322dce85a1161005b57806322dce85a14610127578063b94f550c14610159578063debfd2a114610175578063e9fe7dfa1461019157610088565b806303cb278a1461008d57806311488121146100bf5780631c8ff9a5146100db578063209c7ad1146100f7575b600080fd5b6100a760048036038101906100a29190610fd1565b6101c1565b6040516100b693929190611339565b60405180910390f35b6100d960048036038101906100d49190610f26565b61029d565b005b6100f560048036038101906100f091906110c3565b610469565b005b610111600480360381019061010c9190610ed2565b610541565b60405161011e91906112cc565b60405180910390f35b610141600480360381019061013c9190610fd1565b6106bd565b60405161015093929190611339565b60405180910390f35b610173600480360381019061016e9190610ed2565b610799565b005b61018f600480360381019061018a9190611074565b610957565b005b6101ab60048036038101906101a6919061100d565b6109ee565b6040516101b891906112e7565b60405180910390f35b600160205281600052604060002081815481106101dd57600080fd5b9060005260206000209060050201600091509150508060000180546102019061150a565b80601f016020809104026020016040519081016040528092919081815260200182805461022d9061150a565b801561027a5780601f1061024f5761010080835404028352916020019161027a565b820191906000526020600020905b81548152906001019060200180831161025d57829003601f168201915b5050505050908060010154908060020160009054906101000a900460ff16905083565b80518251146102e1576040517f08c379a00000000000000000000000000000000000000000000000000000000081526004016102d890611377565b60405180910390fd5b60006040518060a00160405280858152602001428152602001600015158152602001848152602001838152509050600160008673ffffffffffffffffffffffffffffffffffffffff1673ffffffffffffffffffffffffffffffffffffffff1681526020019081526020016000208190806001815401808255809150506001900390600052602060002090600502016000909190919091506000820151816000019080519060200190610394929190610c52565b506020820151816001015560408201518160020160006101000a81548160ff02191690831515021790555060608201518160030190805190602001906103db929190610cd8565b5060808201518160040190805190602001906103f8929190610cd8565b5050508473ffffffffffffffffffffffffffffffffffffffff163373ffffffffffffffffffffffffffffffffffffffff167f3cdce538b6db111fcf97c8cdfc0f65dcd4c7eaeea28abf410f46ad76daed828b864260405161045a929190611309565b60405180910390a35050505050565b600060405180606001604052808481526020018381526020016001151581525090506000803373ffffffffffffffffffffffffffffffffffffffff1673ffffffffffffffffffffffffffffffffffffffff168152602001908152602001600020819080600181540180825580915050600190039060005260206000209060030201600090919091909150600082015181600001908051906020019061050f929190610c52565b506020820151816001015560408201518160020160006101000a81548160ff0219169083151502179055505050505050565b600080600160008573ffffffffffffffffffffffffffffffffffffffff1673ffffffffffffffffffffffffffffffffffffffff168152602001908152602001600020905060005b81805490508110156106b057836040516020016105a5919061129e565b604051602081830303815290604052805190602001208282815481106105f4577f4e487b7100000000000000000000000000000000000000000000000000000000600052603260045260246000fd5b906000526020600020906005020160000160405160200161061591906112b5565b6040516020818303038152906040528051906020012014801561068d575081818154811061066c577f4e487b7100000000000000000000000000000000000000000000000000000000600052603260045260246000fd5b906000526020600020906005020160020160009054906101000a900460ff16155b1561069d576001925050506106b7565b80806106a89061153c565b915050610588565b5060009150505b92915050565b600060205281600052604060002081815481106106d957600080fd5b9060005260206000209060030201600091509150508060000180546106fd9061150a565b80601f01602080910402602001604051908101604052809291908181526020018280546107299061150a565b80156107765780601f1061074b57610100808354040283529160200191610776565b820191906000526020600020905b81548152906001019060200180831161075957829003601f168201915b5050505050908060010154908060020160009054906101000a900460ff16905083565b6000600160008473ffffffffffffffffffffffffffffffffffffffff1673ffffffffffffffffffffffffffffffffffffffff168152602001908152602001600020905060005b818054905081101561095157826040516020016107fc919061129e565b6040516020818303038152906040528051906020012082828154811061084b577f4e487b7100000000000000000000000000000000000000000000000000000000600052603260045260246000fd5b906000526020600020906005020160000160405160200161086c91906112b5565b60405160208183030381529060405280519060200120141561093e5760018282815481106108c3577f4e487b7100000000000000000000000000000000000000000000000000000000600052603260045260246000fd5b906000526020600020906005020160020160006101000a81548160ff0219169083151502179055508373ffffffffffffffffffffffffffffffffffffffff167f47b59d3599ed2ba34f6334425c05eff11ba50848c9b4c4a10d73ddcc9c8c8d028460405161093191906112e7565b60405180910390a2610951565b80806109499061153c565b9150506107df565b50505050565b60008060008573ffffffffffffffffffffffffffffffffffffffff1673ffffffffffffffffffffffffffffffffffffffff16815260200190815260200160002083815481106109cf577f4e487b7100000000000000000000000000000000000000000000000000000000600052603260045260246000fd5b9060005260206000209060030201905081816001018190555050505050565b60606000600160008673ffffffffffffffffffffffffffffffffffffffff1673ffffffffffffffffffffffffffffffffffffffff1681526020019081526020016000208481548110610a69577f4e487b7100000000000000000000000000000000000000000000000000000000600052603260045260246000fd5b9060005260206000209060050201905060005b8160030180549050811015610c0f5783604051602001610a9c919061129e565b60405160208183030381529060405280519060200120826003018281548110610aee577f4e487b7100000000000000000000000000000000000000000000000000000000600052603260045260246000fd5b90600052602060002001604051602001610b0891906112b5565b604051602081830303815290604052805190602001201415610bfc57816004018181548110610b60577f4e487b7100000000000000000000000000000000000000000000000000000000600052603260045260246000fd5b906000526020600020018054610b759061150a565b80601f0160208091040260200160405190810160405280929190818152602001828054610ba19061150a565b8015610bee5780601f10610bc357610100808354040283529160200191610bee565b820191906000526020600020905b815481529060010190602001808311610bd157829003601f168201915b505050505092505050610c4b565b8080610c079061153c565b915050610a7c565b506040517f08c379a0000000000000000000000000000000000000000000000000000000008152600401610c4290611397565b60405180910390fd5b9392505050565b828054610c5e9061150a565b90600052602060002090601f016020900481019282610c805760008555610cc7565b82601f10610c9957805160ff1916838001178555610cc7565b82800160010185558215610cc7579182015b82811115610cc6578251825591602001919060010190610cab565b5b509050610cd49190610d38565b5090565b828054828255906000526020600020908101928215610d27579160200282015b82811115610d26578251829080519060200190610d16929190610c52565b5091602001919060010190610cf8565b5b509050610d349190610d55565b5090565b5b80821115610d51576000816000905550600101610d39565b5090565b5b80821115610d755760008181610d6c9190610d79565b50600101610d56565b5090565b508054610d859061150a565b6000825580601f10610d975750610db6565b601f016020900490600052602060002090810190610db59190610d38565b5b50565b6000610dcc610dc7846113e8565b6113b7565b9050808382526020820190508260005b85811015610e0c5781358501610df28882610e93565b845260208401935060208301925050600181019050610ddc565b5050509392505050565b6000610e29610e2484611414565b6113b7565b905082815260208101848484011115610e4157600080fd5b610e4c8482856114c8565b509392505050565b600081359050610e6381611623565b92915050565b600082601f830112610e7a57600080fd5b8135610e8a848260208601610db9565b91505092915050565b600082601f830112610ea457600080fd5b8135610eb4848260208601610e16565b91505092915050565b600081359050610ecc8161163a565b92915050565b60008060408385031215610ee557600080fd5b6000610ef385828601610e54565b925050602083013567ffffffffffffffff811115610f1057600080fd5b610f1c85828601610e93565b9150509250929050565b60008060008060808587031215610f3c57600080fd5b6000610f4a87828801610e54565b945050602085013567ffffffffffffffff811115610f6757600080fd5b610f7387828801610e93565b935050604085013567ffffffffffffffff811115610f9057600080fd5b610f9c87828801610e69565b925050606085013567ffffffffffffffff811115610fb957600080fd5b610fc587828801610e69565b91505092959194509250565b60008060408385031215610fe457600080fd5b6000610ff285828601610e54565b925050602061100385828601610ebd565b9150509250929050565b60008060006060848603121561102257600080fd5b600061103086828701610e54565b935050602061104186828701610ebd565b925050604084013567ffffffffffffffff81111561105e57600080fd5b61106a86828701610e93565b9150509250925092565b60008060006060848603121561108957600080fd5b600061109786828701610e54565b93505060206110a886828701610ebd565b92505060406110b986828701610ebd565b9150509250925092565b600080604083850312156110d657600080fd5b600083013567ffffffffffffffff8111156110f057600080fd5b6110fc85828601610e93565b925050602061110d85828601610ebd565b9150509250929050565b61112081611492565b82525050565b600061113182611459565b61113b8185611464565b935061114b8185602086016114d7565b61115481611612565b840191505092915050565b600061116a82611459565b6111748185611475565b93506111848185602086016114d7565b80840191505092915050565b6000815461119d8161150a565b6111a78186611475565b945060018216600081146111c257600181146111d357611206565b60ff19831686528186019350611206565b6111dc85611444565b60005b838110156111fe578154818901526001820191506020810190506111df565b838801955050505b50505092915050565b600061121c601f83611464565b91507f4b65797320616e642076616c756573206c656e677468206d69736d61746368006000830152602082019050919050565b600061125c601383611464565b91507f417474726962757465206e6f7420666f756e64000000000000000000000000006000830152602082019050919050565b611298816114be565b82525050565b60006112aa828461115f565b915081905092915050565b60006112c18284611190565b915081905092915050565b60006020820190506112e16000830184611117565b92915050565b600060208201905081810360008301526113018184611126565b905092915050565b600060408201905081810360008301526113238185611126565b9050611332602083018461128f565b9392505050565b600060608201905081810360008301526113538186611126565b9050611362602083018561128f565b61136f6040830184611117565b949350505050565b600060208201905081810360008301526113908161120f565b9050919050565b600060208201905081810360008301526113b08161124f565b9050919050565b6000604051905081810181811067ffffffffffffffff821117156113de576113dd6115e3565b5b8060405250919050565b600067ffffffffffffffff821115611403576114026115e3565b5b602082029050602081019050919050565b600067ffffffffffffffff82111561142f5761142e6115e3565b5b601f19601f8301169050602081019050919050565b60008190508160005260206000209050919050565b600081519050919050565b600082825260208201905092915050565b600081905092915050565b600061148b8261149e565b9050919050565b60008115159050919050565b600073ffffffffffffffffffffffffffffffffffffffff82169050919050565b6000819050919050565b82818337600083830152505050565b60005b838110156114f55780820151818401526020810190506114da565b83811115611504576000848401525b50505050565b6000600282049050600182168061152257607f821691505b60208210811415611536576115356115b4565b5b50919050565b6000611547826114be565b91507fffffffffffffffffffffffffffffffffffffffffffffffffffffffffffffffff82141561157a57611579611585565b5b600182019050919050565b7f4e487b7100000000000000000000000000000000000000000000000000000000600052601160045260246000fd5b7f4e487b7100000000000000000000000000000000000000000000000000000000600052602260045260246000fd5b7f4e487b7100000000000000000000000000000000000000000000000000000000600052604160045260246000fd5b6000601f19601f8301169050919050565b61162c81611480565b811461163757600080fd5b50565b611643816114be565b811461164e57600080fd5b5056fea264697066735822122028ef70e5b1634ff2e9a3bfa8edccd64aca5610a6096f842043adeac9a50195cb64736f6c63430008000033",
  "immutableReferences": {},
  "source": "// SPDX-License-Identifier: MIT\npragma solidity ^0.8.0;\n\ncontract DocumentRegistry {\n    // Struct to represent a Credential\n    struct Credential {\n        string documentHash;\n        uint256 timestamp;\n        bool revoked;\n        // Using dynamic arrays to store attributes key-value pairs\n        string[] attributeKeys;\n        string[] attributeValues;\n    }\n\n    // Struct to represent a Credential Definition\n    struct CredentialDefinition {\n        string definitionName;\n        uint256 version;\n        bool active;\n    }\n\n    // Mapping from organization address to their list of credential definitions\n    mapping(address => CredentialDefinition[]) public credentialDefinitions;\n\n    // Mapping from recipient address to their list of credentials\n    mapping(address => Credential[]) public credentials;\n\n    // Event to emit when a credential is issued\n    event CredentialIssued(address indexed issuer, address indexed recipient, string documentHash, uint256 timestamp);\n\n    // Event to emit when a credential is revoked\n    event CredentialRevoked(address indexed recipient, string documentHash);\n\n    // Function to create a new credential definition\n    function createCredentialDefinition(string memory definitionName, uint256 version) public {\n        CredentialDefinition memory newDefinition = CredentialDefinition({\n            definitionName: definitionName,\n            version: version,\n            active: true\n        });\n\n        credentialDefinitions[msg.sender].push(newDefinition);\n    }\n\n    // Function to issue a credential to a recipient with dynamic attributes\n    function issueCredential(\n        address recipient,\n        string memory documentHash,\n        string[] memory keys,\n        string[] memory values\n    ) public {\n        require(keys.length == values.length, \"Keys and values length mismatch\");\n\n        // Create a new Credential struct\n        Credential memory newCredential = Credential({\n            documentHash: documentHash,\n            timestamp: block.timestamp,\n            revoked: false,\n            attributeKeys: keys,\n            attributeValues: values\n        });\n\n        // Add the credential to the recipient's list\n        credentials[recipient].push(newCredential);\n\n        // Emit the CredentialIssued event\n        emit CredentialIssued(msg.sender, recipient, documentHash, block.timestamp);\n    }\n\n    // Function to revoke a credential\n    function revokeCredential(address recipient, string memory documentHash) public {\n        Credential[] storage userCredentials = credentials[recipient];\n\n        // Iterate through the list to find and revoke the matching credential\n        for (uint256 i = 0; i < userCredentials.length; i++) {\n            if (keccak256(abi.encodePacked(userCredentials[i].documentHash)) == keccak256(abi.encodePacked(documentHash))) {\n                userCredentials[i].revoked = true;\n                emit CredentialRevoked(recipient, documentHash);\n                break;\n            }\n        }\n    }\n\n    // Function to verify if a credential exists for a recipient and is not revoked\n    function verifyCredential(address recipient, string memory documentHash) public view returns (bool) {\n        Credential[] storage userCredentials = credentials[recipient];\n\n        // Iterate through the list to find a matching and non-revoked credential\n        for (uint256 i = 0; i < userCredentials.length; i++) {\n            if (\n                keccak256(abi.encodePacked(userCredentials[i].documentHash)) == keccak256(abi.encodePacked(documentHash)) &&\n                !userCredentials[i].revoked\n            ) {\n                return true;\n            }\n        }\n\n        // Return false if no matching credential is found or if it is revoked\n        return false;\n    }\n\n    // Function to update the version of a credential definition\n    function updateCredentialDefinition(address organization, uint256 definitionIndex, uint256 newVersion) public {\n        CredentialDefinition storage definition = credentialDefinitions[organization][definitionIndex];\n        definition.version = newVersion;\n    }\n\n    // Function to get an attribute of a credential\n    function getCredentialAttribute(address recipient, uint256 credentialIndex, string memory key) public view returns (string memory) {\n        Credential storage credential = credentials[recipient][credentialIndex];\n        for (uint256 i = 0; i < credential.attributeKeys.length; i++) {\n            if (keccak256(abi.encodePacked(credential.attributeKeys[i])) == keccak256(abi.encodePacked(key))) {\n                return credential.attributeValues[i];\n            }\n        }\n        revert(\"Attribute not found\");\n    }\n}\n",
  "sourcePath": "/Users/pranavlaygude/Desktop/Workspace/TrustChain/blockchain/contracts/DocumentRegistry.sol",
  "compiler": {
    "name": "solc",
    "version": "0.8.0+commit.c7dfd78e.Emscripten.clang"
  },
  "schemaVersion": "3.4.16",
  "updatedAt": "2024-05-23T23:53:54.531Z",
  "networkType": "ethereum",
  "devdoc": {
    "kind": "dev",
    "methods": {},
    "version": 1
  },
  "userdoc": {
    "kind": "user",
    "methods": {},
    "version": 1
  }
}